{
  "contractName": "OpenHouseToken",
  "abi": [
    {
      "constant": true,
      "inputs": [
        {
          "name": "from",
          "type": "address"
        }
      ],
      "name": "getOfferPrice",
      "outputs": [
        {
          "name": "",
          "type": "uint256"
        }
      ],
      "payable": false,
      "stateMutability": "view",
      "type": "function",
      "signature": "0x108195f5"
    },
    {
      "constant": true,
      "inputs": [],
      "name": "getCommitedFromRented",
      "outputs": [
        {
          "name": "",
          "type": "uint256"
        }
      ],
      "payable": false,
      "stateMutability": "view",
      "type": "function",
      "signature": "0x4e5e63b5"
    },
    {
      "constant": true,
      "inputs": [],
      "name": "getStatus",
      "outputs": [
        {
          "name": "",
          "type": "uint8"
        }
      ],
      "payable": false,
      "stateMutability": "view",
      "type": "function",
      "signature": "0x4e69d560"
    },
    {
      "constant": true,
      "inputs": [
        {
          "name": "from",
          "type": "address"
        }
      ],
      "name": "getOfferLeasedTimestamp",
      "outputs": [
        {
          "name": "",
          "type": "uint256"
        }
      ],
      "payable": false,
      "stateMutability": "view",
      "type": "function",
      "signature": "0x950e6beb"
    },
    {
      "constant": true,
      "inputs": [
        {
          "name": "from",
          "type": "address"
        }
      ],
      "name": "getOfferLeasedTo",
      "outputs": [
        {
          "name": "",
          "type": "address"
        }
      ],
      "payable": false,
      "stateMutability": "view",
      "type": "function",
      "signature": "0x9a0907ba"
    },
    {
      "constant": true,
      "inputs": [
        {
          "name": "from",
          "type": "address"
        }
      ],
      "name": "getRentedFrom",
      "outputs": [
        {
          "name": "",
          "type": "address"
        }
      ],
      "payable": false,
      "stateMutability": "view",
      "type": "function",
      "signature": "0x9c929348"
    },
    {
      "constant": true,
      "inputs": [],
      "name": "getCommitedFromBalance",
      "outputs": [
        {
          "name": "",
          "type": "uint256"
        }
      ],
      "payable": false,
      "stateMutability": "view",
      "type": "function",
      "signature": "0x9f686d9f"
    },
    {
      "constant": true,
      "inputs": [
        {
          "name": "from",
          "type": "address"
        }
      ],
      "name": "getRentedAvailableTokens",
      "outputs": [
        {
          "name": "",
          "type": "uint256"
        }
      ],
      "payable": false,
      "stateMutability": "view",
      "type": "function",
      "signature": "0xa4928973"
    },
    {
      "constant": true,
      "inputs": [
        {
          "name": "from",
          "type": "address"
        }
      ],
      "name": "getOfferNumberOfTokens",
      "outputs": [
        {
          "name": "",
          "type": "uint256"
        }
      ],
      "payable": false,
      "stateMutability": "view",
      "type": "function",
      "signature": "0xaba1883a"
    },
    {
      "constant": true,
      "inputs": [
        {
          "name": "from",
          "type": "address"
        }
      ],
      "name": "getRentedNumberOfTokens",
      "outputs": [
        {
          "name": "",
          "type": "uint256"
        }
      ],
      "payable": false,
      "stateMutability": "view",
      "type": "function",
      "signature": "0xb6a93382"
    },
    {
      "constant": true,
      "inputs": [
        {
          "name": "from",
          "type": "address"
        }
      ],
      "name": "getOfferDuration",
      "outputs": [
        {
          "name": "",
          "type": "uint256"
        }
      ],
      "payable": false,
      "stateMutability": "view",
      "type": "function",
      "signature": "0xc2a1f5c9"
    },
    {
      "inputs": [
        {
          "name": "totalSupply",
          "type": "uint256"
        }
      ],
      "payable": false,
      "stateMutability": "nonpayable",
      "type": "constructor",
      "signature": "constructor"
    },
    {
      "anonymous": false,
      "inputs": [
        {
          "indexed": true,
          "name": "from",
          "type": "address"
        },
        {
          "indexed": true,
          "name": "to",
          "type": "address"
        },
        {
          "indexed": false,
          "name": "value",
          "type": "uint256"
        }
      ],
      "name": "Approval",
      "type": "event",
      "signature": "0x8c5be1e5ebec7d5bd14f71427d1e84f3dd0314c0f7b2291e5b200ac8c7c3b925"
    },
    {
      "anonymous": false,
      "inputs": [
        {
          "indexed": true,
          "name": "from",
          "type": "address"
        },
        {
          "indexed": true,
          "name": "to",
          "type": "address"
        },
        {
          "indexed": false,
          "name": "value",
          "type": "uint256"
        }
      ],
      "name": "Transfer",
      "type": "event",
      "signature": "0xddf252ad1be2c89b69c2b068fc378daa952ba7f163c4a11628f55a4df523b3ef"
    },
    {
      "anonymous": false,
      "inputs": [
        {
          "indexed": true,
          "name": "from",
          "type": "address"
        },
        {
          "indexed": true,
          "name": "to",
          "type": "address"
        }
      ],
      "name": "OwnershipTransfered",
      "type": "event",
      "signature": "0x0d18b5fd22306e373229b9439188228edca81207d1667f604daf6cef8aa3ee67"
    },
    {
      "anonymous": false,
      "inputs": [
        {
          "indexed": true,
          "name": "from",
          "type": "address"
        },
        {
          "indexed": false,
          "name": "numberOfTokens",
          "type": "uint256"
        },
        {
          "indexed": false,
          "name": "price",
          "type": "uint256"
        },
        {
          "indexed": false,
          "name": "duration",
          "type": "uint256"
        }
      ],
      "name": "OfferCreated",
      "type": "event",
      "signature": "0x90a9eceab52715252ab1d154d77c32c3a27117d68723b35afd71c3e528eb70d3"
    },
    {
      "anonymous": false,
      "inputs": [
        {
          "indexed": true,
          "name": "from",
          "type": "address"
        }
      ],
      "name": "OfferRemoved",
      "type": "event",
      "signature": "0xdf23490ffb4f2c066b5d9f245079c179b5af5ecffbec540ffe2fa69604f01aa5"
    },
    {
      "anonymous": false,
      "inputs": [
        {
          "indexed": true,
          "name": "from",
          "type": "address"
        },
        {
          "indexed": true,
          "name": "to",
          "type": "address"
        }
      ],
      "name": "Leased",
      "type": "event",
      "signature": "0x1ec5d80aa38dcf1754b30ab952af60e5d9ed60fce085301c158f1a6714c0f1ce"
    },
    {
      "anonymous": false,
      "inputs": [
        {
          "indexed": true,
          "name": "from",
          "type": "address"
        },
        {
          "indexed": true,
          "name": "to",
          "type": "address"
        }
      ],
      "name": "LeaseTerminated",
      "type": "event",
      "signature": "0x07b520f2e1a3f2e686818158dab32fe19d7a4976d077d20affc019b17997406c"
    },
    {
      "anonymous": false,
      "inputs": [
        {
          "indexed": false,
          "name": "from",
          "type": "address"
        },
        {
          "indexed": false,
          "name": "to",
          "type": "address"
        }
      ],
      "name": "LeasingTerminated",
      "type": "event",
      "signature": "0xcd4c68102b1e5b751d8ea27a9a5ddc8a24dc3639092c34b7ac0f282c5ffe0c1b"
    },
    {
      "anonymous": false,
      "inputs": [
        {
          "indexed": true,
          "name": "from",
          "type": "address"
        },
        {
          "indexed": false,
          "name": "numberOfTokens",
          "type": "uint256"
        }
      ],
      "name": "CommitedFromBalance",
      "type": "event",
      "signature": "0x15691f9ef162518f57b746fedf540512dc8e3a26d5bd1b55accca49a700e842e"
    },
    {
      "anonymous": false,
      "inputs": [
        {
          "indexed": true,
          "name": "from",
          "type": "address"
        },
        {
          "indexed": false,
          "name": "numberOfTokens",
          "type": "uint256"
        }
      ],
      "name": "CommitedToBalance",
      "type": "event",
      "signature": "0xbaacf5646626eff2c662b9634151a64f582e87165a7ea2d42bec08fe9beef7bb"
    },
    {
      "anonymous": false,
      "inputs": [
        {
          "indexed": true,
          "name": "from",
          "type": "address"
        },
        {
          "indexed": false,
          "name": "numberOfTokens",
          "type": "uint256"
        }
      ],
      "name": "CommitedFromRented",
      "type": "event",
      "signature": "0x089fbe1cd42a8f68ef9a0073f280a16d62d31223e15bd81eefeed25769a767ae"
    },
    {
      "anonymous": false,
      "inputs": [
        {
          "indexed": true,
          "name": "from",
          "type": "address"
        },
        {
          "indexed": false,
          "name": "numberOfTokens",
          "type": "uint256"
        }
      ],
      "name": "CommitedToRented",
      "type": "event",
      "signature": "0xa75759184ea43cd7aeeee18efa2c6e65a6c4a31a5ecdd2e9bba3f13ac7c250c2"
    },
    {
      "anonymous": false,
      "inputs": [
        {
          "indexed": true,
          "name": "blockNumber",
          "type": "uint256"
        }
      ],
      "name": "Activated",
      "type": "event",
      "signature": "0x3ec796be1be7d03bff3a62b9fa594a60e947c1809bced06d929f145308ae57ce"
    },
    {
      "anonymous": false,
      "inputs": [
        {
          "indexed": true,
          "name": "blockNumber",
          "type": "uint256"
        }
      ],
      "name": "Deactivated",
      "type": "event",
      "signature": "0xed48e4e899b34abded07dd8f092a22585a3fdec7db6b83f3927af165bf04cb1e"
    },
    {
      "constant": true,
      "inputs": [],
      "name": "getName",
      "outputs": [
        {
          "name": "",
          "type": "string"
        }
      ],
      "payable": false,
      "stateMutability": "view",
      "type": "function",
      "signature": "0x17d7de7c"
    },
    {
      "constant": true,
      "inputs": [],
      "name": "getSymbol",
      "outputs": [
        {
          "name": "",
          "type": "string"
        }
      ],
      "payable": false,
      "stateMutability": "view",
      "type": "function",
      "signature": "0x15070401"
    },
    {
      "constant": true,
      "inputs": [],
      "name": "getDecimals",
      "outputs": [
        {
          "name": "",
          "type": "uint256"
        }
      ],
      "payable": false,
      "stateMutability": "view",
      "type": "function",
      "signature": "0xf0141d84"
    },
    {
      "constant": true,
      "inputs": [],
      "name": "getOwner",
      "outputs": [
        {
          "name": "",
          "type": "address"
        }
      ],
      "payable": false,
      "stateMutability": "view",
      "type": "function",
      "signature": "0x893d20e8"
    },
    {
      "constant": true,
      "inputs": [],
      "name": "totalSupply",
      "outputs": [
        {
          "name": "",
          "type": "uint256"
        }
      ],
      "payable": false,
      "stateMutability": "view",
      "type": "function",
      "signature": "0x18160ddd"
    },
    {
      "constant": false,
      "inputs": [],
      "name": "activate",
      "outputs": [
        {
          "name": "",
          "type": "bool"
        }
      ],
      "payable": false,
      "stateMutability": "nonpayable",
      "type": "function",
      "signature": "0x0f15f4c0"
    },
    {
      "constant": false,
      "inputs": [],
      "name": "deactivate",
      "outputs": [
        {
          "name": "",
          "type": "bool"
        }
      ],
      "payable": false,
      "stateMutability": "nonpayable",
      "type": "function",
      "signature": "0x51b42b00"
    },
    {
      "constant": false,
      "inputs": [
        {
          "name": "newOwner",
          "type": "address"
        }
      ],
      "name": "transferOwnership",
      "outputs": [
        {
          "name": "",
          "type": "bool"
        }
      ],
      "payable": false,
      "stateMutability": "nonpayable",
      "type": "function",
      "signature": "0xf2fde38b"
    },
    {
      "constant": true,
      "inputs": [
        {
          "name": "owner",
          "type": "address"
        }
      ],
      "name": "balanceOf",
      "outputs": [
        {
          "name": "",
          "type": "uint256"
        }
      ],
      "payable": false,
      "stateMutability": "view",
      "type": "function",
      "signature": "0x70a08231"
    },
    {
      "constant": false,
      "inputs": [
        {
          "name": "spender",
          "type": "address"
        },
        {
          "name": "value",
          "type": "uint256"
        }
      ],
      "name": "approve",
      "outputs": [
        {
          "name": "",
          "type": "bool"
        }
      ],
      "payable": false,
      "stateMutability": "nonpayable",
      "type": "function",
      "signature": "0x095ea7b3"
    },
    {
      "constant": true,
      "inputs": [
        {
          "name": "owner",
          "type": "address"
        },
        {
          "name": "spender",
          "type": "address"
        }
      ],
      "name": "allowance",
      "outputs": [
        {
          "name": "",
          "type": "uint256"
        }
      ],
      "payable": false,
      "stateMutability": "view",
      "type": "function",
      "signature": "0xdd62ed3e"
    },
    {
      "constant": false,
      "inputs": [
        {
          "name": "to",
          "type": "address"
        },
        {
          "name": "value",
          "type": "uint256"
        }
      ],
      "name": "transfer",
      "outputs": [
        {
          "name": "",
          "type": "bool"
        }
      ],
      "payable": false,
      "stateMutability": "nonpayable",
      "type": "function",
      "signature": "0xa9059cbb"
    },
    {
      "constant": false,
      "inputs": [
        {
          "name": "from",
          "type": "address"
        },
        {
          "name": "to",
          "type": "address"
        },
        {
          "name": "value",
          "type": "uint256"
        }
      ],
      "name": "transferFrom",
      "outputs": [
        {
          "name": "",
          "type": "bool"
        }
      ],
      "payable": false,
      "stateMutability": "nonpayable",
      "type": "function",
      "signature": "0x23b872dd"
    },
    {
      "constant": false,
      "inputs": [
        {
          "name": "numberOfTokens",
          "type": "uint256"
        }
      ],
      "name": "commitFromBalance",
      "outputs": [
        {
          "name": "",
          "type": "bool"
        }
      ],
      "payable": false,
      "stateMutability": "nonpayable",
      "type": "function",
      "signature": "0x3bb19a13"
    },
    {
      "constant": false,
      "inputs": [
        {
          "name": "numberOfTokens",
          "type": "uint256"
        }
      ],
      "name": "commitToBalance",
      "outputs": [
        {
          "name": "",
          "type": "bool"
        }
      ],
      "payable": false,
      "stateMutability": "nonpayable",
      "type": "function",
      "signature": "0x814a71af"
    },
    {
      "constant": false,
      "inputs": [
        {
          "name": "numberOfTokens",
          "type": "uint256"
        }
      ],
      "name": "commitFromRented",
      "outputs": [
        {
          "name": "",
          "type": "bool"
        }
      ],
      "payable": false,
      "stateMutability": "nonpayable",
      "type": "function",
      "signature": "0xe1e36220"
    },
    {
      "constant": false,
      "inputs": [
        {
          "name": "numberOfTokens",
          "type": "uint256"
        }
      ],
      "name": "commitToRented",
      "outputs": [
        {
          "name": "",
          "type": "bool"
        }
      ],
      "payable": false,
      "stateMutability": "nonpayable",
      "type": "function",
      "signature": "0x67feedb0"
    },
    {
      "constant": false,
      "inputs": [
        {
          "name": "numberOfTokens",
          "type": "uint256"
        },
        {
          "name": "price",
          "type": "uint256"
        },
        {
          "name": "duration",
          "type": "uint256"
        }
      ],
      "name": "createOffer",
      "outputs": [
        {
          "name": "",
          "type": "bool"
        }
      ],
      "payable": false,
      "stateMutability": "nonpayable",
      "type": "function",
      "signature": "0xdc35a900"
    },
    {
      "constant": false,
      "inputs": [],
      "name": "removeOffer",
      "outputs": [
        {
          "name": "",
          "type": "bool"
        }
      ],
      "payable": false,
      "stateMutability": "nonpayable",
      "type": "function",
      "signature": "0xeda26772"
    },
    {
      "constant": false,
      "inputs": [
        {
          "name": "from",
          "type": "address"
        }
      ],
      "name": "leaseFrom",
      "outputs": [
        {
          "name": "",
          "type": "bool"
        }
      ],
      "payable": true,
      "stateMutability": "payable",
      "type": "function",
      "signature": "0x30b87b16"
    },
    {
      "constant": false,
      "inputs": [],
      "name": "terminateLeasing",
      "outputs": [
        {
          "name": "",
          "type": "bool"
        }
      ],
      "payable": false,
      "stateMutability": "nonpayable",
      "type": "function",
      "signature": "0xce852e54"
    }
  ],
  "bytecode": "0x60806040523480156200001157600080fd5b50604051602080620033d7833981018060405260208110156200003357600080fd5b81019080805190602001909291905050506040518060400160405280600f81526020017f4f70656e486f75736520546f6b656e00000000000000000000000000000000008152506004908051906020019062000091929190620001a1565b506040518060400160405280600381526020017f4f4854000000000000000000000000000000000000000000000000000000000081525060059080519060200190620000df929190620001a1565b50601260068190555080600781905550600754600960003373ffffffffffffffffffffffffffffffffffffffff1673ffffffffffffffffffffffffffffffffffffffff1681526020019081526020016000208190555033600860006101000a81548173ffffffffffffffffffffffffffffffffffffffff021916908373ffffffffffffffffffffffffffffffffffffffff16021790555060008060006101000a81548160ff021916908360018111156200019557fe5b02179055505062000250565b828054600181600116156101000203166002900490600052602060002090601f016020900481019282601f10620001e457805160ff191683800117855562000215565b8280016001018555821562000215579182015b8281111562000214578251825591602001919060010190620001f7565b5b50905062000224919062000228565b5090565b6200024d91905b80821115620002495760008160009055506001016200022f565b5090565b90565b61317780620002606000396000f3fe608060405260043610610200576000357c010000000000000000000000000000000000000000000000000000000090048063950e6beb1161011f578063c2a1f5c9116100b2578063e1e3622011610081578063e1e3622014610c62578063eda2677214610cb5578063f0141d8414610ce4578063f2fde38b14610d0f57610200565b8063c2a1f5c914610ae2578063ce852e5414610b47578063dc35a90014610b76578063dd62ed3e14610bdd57610200565b8063a4928973116100ee578063a492897314610940578063a9059cbb146109a5578063aba1883a14610a18578063b6a9338214610a7d57610200565b8063950e6beb1461078e5780639a0907ba146107f35780639c929348146108845780639f686d9f1461091557610200565b80633bb19a131161019757806367feedb01161016657806367feedb01461062c57806370a082311461067f578063814a71af146106e4578063893d20e81461073757610200565b80633bb19a13146105465780634e5e63b5146105995780634e69d560146105c457806351b42b00146105fd57610200565b806317d7de7c116101d357806317d7de7c1461039c57806318160ddd1461042c57806323b872dd1461045757806330b87b16146104ea57610200565b8063095ea7b3146102055780630f15f4c014610278578063108195f5146102a7578063150704011461030c575b600080fd5b34801561021157600080fd5b5061025e6004803603604081101561022857600080fd5b81019080803573ffffffffffffffffffffffffffffffffffffffff16906020019092919080359060200190929190505050610d78565b604051808215151515815260200191505060405180910390f35b34801561028457600080fd5b5061028d610e9a565b604051808215151515815260200191505060405180910390f35b3480156102b357600080fd5b506102f6600480360360208110156102ca57600080fd5b81019080803573ffffffffffffffffffffffffffffffffffffffff169060200190929190505050610f4d565b6040518082815260200191505060405180910390f35b34801561031857600080fd5b50610321610f99565b6040518080602001828103825283818151815260200191508051906020019080838360005b83811015610361578082015181840152602081019050610346565b50505050905090810190601f16801561038e5780820380516001836020036101000a031916815260200191505b509250505060405180910390f35b3480156103a857600080fd5b506103b161103b565b6040518080602001828103825283818151815260200191508051906020019080838360005b838110156103f15780820151818401526020810190506103d6565b50505050905090810190601f16801561041e5780820380516001836020036101000a031916815260200191505b509250505060405180910390f35b34801561043857600080fd5b506104416110dd565b6040518082815260200191505060405180910390f35b34801561046357600080fd5b506104d06004803603606081101561047a57600080fd5b81019080803573ffffffffffffffffffffffffffffffffffffffff169060200190929190803573ffffffffffffffffffffffffffffffffffffffff169060200190929190803590602001909291905050506110e7565b604051808215151515815260200191505060405180910390f35b61052c6004803603602081101561050057600080fd5b81019080803573ffffffffffffffffffffffffffffffffffffffff169060200190929190505050611382565b604051808215151515815260200191505060405180910390f35b34801561055257600080fd5b5061057f6004803603602081101561056957600080fd5b8101908080359060200190929190505050611849565b604051808215151515815260200191505060405180910390f35b3480156105a557600080fd5b506105ae6119bb565b6040518082815260200191505060405180910390f35b3480156105d057600080fd5b506105d9611a05565b604051808260018111156105e957fe5b60ff16815260200191505060405180910390f35b34801561060957600080fd5b50610612611a1b565b604051808215151515815260200191505060405180910390f35b34801561063857600080fd5b506106656004803603602081101561064f57600080fd5b8101908080359060200190929190505050611ace565b604051808215151515815260200191505060405180910390f35b34801561068b57600080fd5b506106ce600480360360208110156106a257600080fd5b81019080803573ffffffffffffffffffffffffffffffffffffffff169060200190929190505050611ce2565b6040518082815260200191505060405180910390f35b3480156106f057600080fd5b5061071d6004803603602081101561070757600080fd5b8101908080359060200190929190505050611d2b565b604051808215151515815260200191505060405180910390f35b34801561074357600080fd5b5061074c611ea0565b604051808273ffffffffffffffffffffffffffffffffffffffff1673ffffffffffffffffffffffffffffffffffffffff16815260200191505060405180910390f35b34801561079a57600080fd5b506107dd600480360360208110156107b157600080fd5b81019080803573ffffffffffffffffffffffffffffffffffffffff169060200190929190505050611eca565b6040518082815260200191505060405180910390f35b3480156107ff57600080fd5b506108426004803603602081101561081657600080fd5b81019080803573ffffffffffffffffffffffffffffffffffffffff169060200190929190505050611f16565b604051808273ffffffffffffffffffffffffffffffffffffffff1673ffffffffffffffffffffffffffffffffffffffff16815260200191505060405180910390f35b34801561089057600080fd5b506108d3600480360360208110156108a757600080fd5b81019080803573ffffffffffffffffffffffffffffffffffffffff169060200190929190505050611f82565b604051808273ffffffffffffffffffffffffffffffffffffffff1673ffffffffffffffffffffffffffffffffffffffff16815260200191505060405180910390f35b34801561092157600080fd5b5061092a611fee565b6040518082815260200191505060405180910390f35b34801561094c57600080fd5b5061098f6004803603602081101561096357600080fd5b81019080803573ffffffffffffffffffffffffffffffffffffffff169060200190929190505050612038565b6040518082815260200191505060405180910390f35b3480156109b157600080fd5b506109fe600480360360408110156109c857600080fd5b81019080803573ffffffffffffffffffffffffffffffffffffffff16906020019092919080359060200190929190505050612084565b604051808215151515815260200191505060405180910390f35b348015610a2457600080fd5b50610a6760048036036020811015610a3b57600080fd5b81019080803573ffffffffffffffffffffffffffffffffffffffff16906020019092919050505061220b565b6040518082815260200191505060405180910390f35b348015610a8957600080fd5b50610acc60048036036020811015610aa057600080fd5b81019080803573ffffffffffffffffffffffffffffffffffffffff169060200190929190505050612257565b6040518082815260200191505060405180910390f35b348015610aee57600080fd5b50610b3160048036036020811015610b0557600080fd5b81019080803573ffffffffffffffffffffffffffffffffffffffff1690602001909291905050506122a3565b6040518082815260200191505060405180910390f35b348015610b5357600080fd5b50610b5c6122ef565b604051808215151515815260200191505060405180910390f35b348015610b8257600080fd5b50610bc360048036036060811015610b9957600080fd5b81019080803590602001909291908035906020019092919080359060200190929190505050612809565b604051808215151515815260200191505060405180910390f35b348015610be957600080fd5b50610c4c60048036036040811015610c0057600080fd5b81019080803573ffffffffffffffffffffffffffffffffffffffff169060200190929190803573ffffffffffffffffffffffffffffffffffffffff169060200190929190505050612b22565b6040518082815260200191505060405180910390f35b348015610c6e57600080fd5b50610c9b60048036036020811015610c8557600080fd5b8101908080359060200190929190505050612ba9565b604051808215151515815260200191505060405180910390f35b348015610cc157600080fd5b50610cca612dbd565b604051808215151515815260200191505060405180910390f35b348015610cf057600080fd5b50610cf9613041565b6040518082815260200191505060405180910390f35b348015610d1b57600080fd5b50610d5e60048036036020811015610d3257600080fd5b81019080803573ffffffffffffffffffffffffffffffffffffffff16906020019092919050505061304b565b604051808215151515815260200191505060405180910390f35b6000806001811115610d8657fe5b6000809054906101000a900460ff166001811115610da057fe5b14610daa57600080fd5b81600a60003373ffffffffffffffffffffffffffffffffffffffff1673ffffffffffffffffffffffffffffffffffffffff16815260200190815260200160002060008573ffffffffffffffffffffffffffffffffffffffff1673ffffffffffffffffffffffffffffffffffffffff168152602001908152602001600020819055508273ffffffffffffffffffffffffffffffffffffffff163373ffffffffffffffffffffffffffffffffffffffff167f8c5be1e5ebec7d5bd14f71427d1e84f3dd0314c0f7b2291e5b200ac8c7c3b925846040518082815260200191505060405180910390a36001905092915050565b6000600860009054906101000a900473ffffffffffffffffffffffffffffffffffffffff1673ffffffffffffffffffffffffffffffffffffffff163373ffffffffffffffffffffffffffffffffffffffff1614610ef657600080fd5b60008060006101000a81548160ff02191690836001811115610f1457fe5b0217905550437f3ec796be1be7d03bff3a62b9fa594a60e947c1809bced06d929f145308ae57ce60405160405180910390a26001905090565b6000600260008373ffffffffffffffffffffffffffffffffffffffff1673ffffffffffffffffffffffffffffffffffffffff168152602001908152602001600020600101549050919050565b606060058054600181600116156101000203166002900480601f0160208091040260200160405190810160405280929190818152602001828054600181600116156101000203166002900480156110315780601f1061100657610100808354040283529160200191611031565b820191906000526020600020905b81548152906001019060200180831161101457829003601f168201915b5050505050905090565b606060048054600181600116156101000203166002900480601f0160208091040260200160405190810160405280929190818152602001828054600181600116156101000203166002900480156110d35780601f106110a8576101008083540402835291602001916110d3565b820191906000526020600020905b8154815290600101906020018083116110b657829003601f168201915b5050505050905090565b6000600754905090565b60008060018111156110f557fe5b6000809054906101000a900460ff16600181111561110f57fe5b1461111957600080fd5b81600a60008673ffffffffffffffffffffffffffffffffffffffff1673ffffffffffffffffffffffffffffffffffffffff16815260200190815260200160002060003373ffffffffffffffffffffffffffffffffffffffff1673ffffffffffffffffffffffffffffffffffffffff1681526020019081526020016000205410156111a257600080fd5b81600960008673ffffffffffffffffffffffffffffffffffffffff1673ffffffffffffffffffffffffffffffffffffffff1681526020019081526020016000205410156111ee57600080fd5b81600960008673ffffffffffffffffffffffffffffffffffffffff1673ffffffffffffffffffffffffffffffffffffffff1681526020019081526020016000206000828254039250508190555081600960008573ffffffffffffffffffffffffffffffffffffffff1673ffffffffffffffffffffffffffffffffffffffff1681526020019081526020016000206000828254019250508190555081600a60008673ffffffffffffffffffffffffffffffffffffffff1673ffffffffffffffffffffffffffffffffffffffff16815260200190815260200160002060003373ffffffffffffffffffffffffffffffffffffffff1673ffffffffffffffffffffffffffffffffffffffff168152602001908152602001600020600082825403925050819055508273ffffffffffffffffffffffffffffffffffffffff168473ffffffffffffffffffffffffffffffffffffffff167fddf252ad1be2c89b69c2b068fc378daa952ba7f163c4a11628f55a4df523b3ef846040518082815260200191505060405180910390a3600190509392505050565b600080600181111561139057fe5b6000809054906101000a900460ff1660018111156113aa57fe5b146113b457600080fd5b600073ffffffffffffffffffffffffffffffffffffffff16600360003373ffffffffffffffffffffffffffffffffffffffff1673ffffffffffffffffffffffffffffffffffffffff16815260200190815260200160002060020160009054906101000a900473ffffffffffffffffffffffffffffffffffffffff1673ffffffffffffffffffffffffffffffffffffffff161461144f57600080fd5b600073ffffffffffffffffffffffffffffffffffffffff16600260008473ffffffffffffffffffffffffffffffffffffffff1673ffffffffffffffffffffffffffffffffffffffff16815260200190815260200160002060030160009054906101000a900473ffffffffffffffffffffffffffffffffffffffff1673ffffffffffffffffffffffffffffffffffffffff16146114ea57600080fd5b600260008373ffffffffffffffffffffffffffffffffffffffff1673ffffffffffffffffffffffffffffffffffffffff16815260200190815260200160002060010154341461153857600080fd5b6000600260008473ffffffffffffffffffffffffffffffffffffffff1673ffffffffffffffffffffffffffffffffffffffff16815260200190815260200160002060000154905033600260008573ffffffffffffffffffffffffffffffffffffffff1673ffffffffffffffffffffffffffffffffffffffff16815260200190815260200160002060030160006101000a81548173ffffffffffffffffffffffffffffffffffffffff021916908373ffffffffffffffffffffffffffffffffffffffff16021790555042600260008573ffffffffffffffffffffffffffffffffffffffff1673ffffffffffffffffffffffffffffffffffffffff168152602001908152602001600020600401819055506000600260008573ffffffffffffffffffffffffffffffffffffffff1673ffffffffffffffffffffffffffffffffffffffff1681526020019081526020016000206000018190555082600360003373ffffffffffffffffffffffffffffffffffffffff1673ffffffffffffffffffffffffffffffffffffffff16815260200190815260200160002060020160006101000a81548173ffffffffffffffffffffffffffffffffffffffff021916908373ffffffffffffffffffffffffffffffffffffffff16021790555080600360003373ffffffffffffffffffffffffffffffffffffffff1673ffffffffffffffffffffffffffffffffffffffff1681526020019081526020016000206000018190555080600360003373ffffffffffffffffffffffffffffffffffffffff1673ffffffffffffffffffffffffffffffffffffffff168152602001908152602001600020600101819055508273ffffffffffffffffffffffffffffffffffffffff166108fc349081150290604051600060405180830381858888f193505050501580156117e4573d6000803e3d6000fd5b503373ffffffffffffffffffffffffffffffffffffffff168373ffffffffffffffffffffffffffffffffffffffff167f1ec5d80aa38dcf1754b30ab952af60e5d9ed60fce085301c158f1a6714c0f1ce60405160405180910390a36001915050919050565b600080600181111561185757fe5b6000809054906101000a900460ff16600181111561187157fe5b1461187b57600080fd5b81600960003373ffffffffffffffffffffffffffffffffffffffff1673ffffffffffffffffffffffffffffffffffffffff1681526020019081526020016000205410156118c757600080fd5b81600960003373ffffffffffffffffffffffffffffffffffffffff1673ffffffffffffffffffffffffffffffffffffffff1681526020019081526020016000206000828254039250508190555081600160003373ffffffffffffffffffffffffffffffffffffffff1673ffffffffffffffffffffffffffffffffffffffff168152602001908152602001600020600001600082825401925050819055503373ffffffffffffffffffffffffffffffffffffffff167f15691f9ef162518f57b746fedf540512dc8e3a26d5bd1b55accca49a700e842e836040518082815260200191505060405180910390a260019050919050565b6000600160003373ffffffffffffffffffffffffffffffffffffffff1673ffffffffffffffffffffffffffffffffffffffff16815260200190815260200160002060010154905090565b60008060009054906101000a900460ff16905090565b6000600860009054906101000a900473ffffffffffffffffffffffffffffffffffffffff1673ffffffffffffffffffffffffffffffffffffffff163373ffffffffffffffffffffffffffffffffffffffff1614611a7757600080fd5b60016000806101000a81548160ff02191690836001811115611a9557fe5b0217905550437fed48e4e899b34abded07dd8f092a22585a3fdec7db6b83f3927af165bf04cb1e60405160405180910390a26001905090565b6000806001811115611adc57fe5b6000809054906101000a900460ff166001811115611af657fe5b14611b0057600080fd5b600073ffffffffffffffffffffffffffffffffffffffff16600360003373ffffffffffffffffffffffffffffffffffffffff1673ffffffffffffffffffffffffffffffffffffffff16815260200190815260200160002060020160009054906101000a900473ffffffffffffffffffffffffffffffffffffffff1673ffffffffffffffffffffffffffffffffffffffff161415611b9c57600080fd5b81600160003373ffffffffffffffffffffffffffffffffffffffff1673ffffffffffffffffffffffffffffffffffffffff168152602001908152602001600020600101541015611beb57600080fd5b81600160003373ffffffffffffffffffffffffffffffffffffffff1673ffffffffffffffffffffffffffffffffffffffff1681526020019081526020016000206001016000828254039250508190555081600360003373ffffffffffffffffffffffffffffffffffffffff1673ffffffffffffffffffffffffffffffffffffffff168152602001908152602001600020600101600082825401925050819055503373ffffffffffffffffffffffffffffffffffffffff167fa75759184ea43cd7aeeee18efa2c6e65a6c4a31a5ecdd2e9bba3f13ac7c250c2836040518082815260200191505060405180910390a260019050919050565b6000600960008373ffffffffffffffffffffffffffffffffffffffff1673ffffffffffffffffffffffffffffffffffffffff168152602001908152602001600020549050919050565b6000806001811115611d3957fe5b6000809054906101000a900460ff166001811115611d5357fe5b14611d5d57600080fd5b81600160003373ffffffffffffffffffffffffffffffffffffffff1673ffffffffffffffffffffffffffffffffffffffff168152602001908152602001600020600001541015611dac57600080fd5b81600160003373ffffffffffffffffffffffffffffffffffffffff1673ffffffffffffffffffffffffffffffffffffffff1681526020019081526020016000206000016000828254039250508190555081600960003373ffffffffffffffffffffffffffffffffffffffff1673ffffffffffffffffffffffffffffffffffffffff168152602001908152602001600020600082825401925050819055503373ffffffffffffffffffffffffffffffffffffffff167fbaacf5646626eff2c662b9634151a64f582e87165a7ea2d42bec08fe9beef7bb836040518082815260200191505060405180910390a260019050919050565b6000600860009054906101000a900473ffffffffffffffffffffffffffffffffffffffff16905090565b6000600260008373ffffffffffffffffffffffffffffffffffffffff1673ffffffffffffffffffffffffffffffffffffffff168152602001908152602001600020600401549050919050565b6000600260008373ffffffffffffffffffffffffffffffffffffffff1673ffffffffffffffffffffffffffffffffffffffff16815260200190815260200160002060030160009054906101000a900473ffffffffffffffffffffffffffffffffffffffff169050919050565b6000600360008373ffffffffffffffffffffffffffffffffffffffff1673ffffffffffffffffffffffffffffffffffffffff16815260200190815260200160002060020160009054906101000a900473ffffffffffffffffffffffffffffffffffffffff169050919050565b6000600160003373ffffffffffffffffffffffffffffffffffffffff1673ffffffffffffffffffffffffffffffffffffffff16815260200190815260200160002060000154905090565b6000600360008373ffffffffffffffffffffffffffffffffffffffff1673ffffffffffffffffffffffffffffffffffffffff168152602001908152602001600020600101549050919050565b600080600181111561209257fe5b6000809054906101000a900460ff1660018111156120ac57fe5b146120b657600080fd5b81600960003373ffffffffffffffffffffffffffffffffffffffff1673ffffffffffffffffffffffffffffffffffffffff16815260200190815260200160002054101561210257600080fd5b81600960003373ffffffffffffffffffffffffffffffffffffffff1673ffffffffffffffffffffffffffffffffffffffff1681526020019081526020016000206000828254039250508190555081600960008573ffffffffffffffffffffffffffffffffffffffff1673ffffffffffffffffffffffffffffffffffffffff168152602001908152602001600020600082825401925050819055508273ffffffffffffffffffffffffffffffffffffffff163373ffffffffffffffffffffffffffffffffffffffff167fddf252ad1be2c89b69c2b068fc378daa952ba7f163c4a11628f55a4df523b3ef846040518082815260200191505060405180910390a36001905092915050565b6000600260008373ffffffffffffffffffffffffffffffffffffffff1673ffffffffffffffffffffffffffffffffffffffff168152602001908152602001600020600001549050919050565b6000600360008373ffffffffffffffffffffffffffffffffffffffff1673ffffffffffffffffffffffffffffffffffffffff168152602001908152602001600020600001549050919050565b6000600260008373ffffffffffffffffffffffffffffffffffffffff1673ffffffffffffffffffffffffffffffffffffffff168152602001908152602001600020600201549050919050565b60008060018111156122fd57fe5b6000809054906101000a900460ff16600181111561231757fe5b1461232157600080fd5b600073ffffffffffffffffffffffffffffffffffffffff16600260003373ffffffffffffffffffffffffffffffffffffffff1673ffffffffffffffffffffffffffffffffffffffff16815260200190815260200160002060030160009054906101000a900473ffffffffffffffffffffffffffffffffffffffff1673ffffffffffffffffffffffffffffffffffffffff1614156123bd57600080fd5b600260003373ffffffffffffffffffffffffffffffffffffffff1673ffffffffffffffffffffffffffffffffffffffff16815260200190815260200160002060020154600260003373ffffffffffffffffffffffffffffffffffffffff1673ffffffffffffffffffffffffffffffffffffffff168152602001908152602001600020600401540142101561245057600080fd5b6000600260003373ffffffffffffffffffffffffffffffffffffffff1673ffffffffffffffffffffffffffffffffffffffff16815260200190815260200160002060030160009054906101000a900473ffffffffffffffffffffffffffffffffffffffff1690506000600360008373ffffffffffffffffffffffffffffffffffffffff1673ffffffffffffffffffffffffffffffffffffffff1681526020019081526020016000206000015490506000600160008473ffffffffffffffffffffffffffffffffffffffff1673ffffffffffffffffffffffffffffffffffffffff168152602001908152602001600020600101819055506000600360008473ffffffffffffffffffffffffffffffffffffffff1673ffffffffffffffffffffffffffffffffffffffff168152602001908152602001600020600101819055506000600360008473ffffffffffffffffffffffffffffffffffffffff1673ffffffffffffffffffffffffffffffffffffffff168152602001908152602001600020600001819055506000600360008473ffffffffffffffffffffffffffffffffffffffff1673ffffffffffffffffffffffffffffffffffffffff16815260200190815260200160002060020160006101000a81548173ffffffffffffffffffffffffffffffffffffffff021916908373ffffffffffffffffffffffffffffffffffffffff1602179055506000600260003373ffffffffffffffffffffffffffffffffffffffff1673ffffffffffffffffffffffffffffffffffffffff16815260200190815260200160002060030160006101000a81548173ffffffffffffffffffffffffffffffffffffffff021916908373ffffffffffffffffffffffffffffffffffffffff1602179055506000600260003373ffffffffffffffffffffffffffffffffffffffff1673ffffffffffffffffffffffffffffffffffffffff1681526020019081526020016000206004018190555080600260003373ffffffffffffffffffffffffffffffffffffffff1673ffffffffffffffffffffffffffffffffffffffff168152602001908152602001600020600001819055507fcd4c68102b1e5b751d8ea27a9a5ddc8a24dc3639092c34b7ac0f282c5ffe0c1b3383604051808373ffffffffffffffffffffffffffffffffffffffff1673ffffffffffffffffffffffffffffffffffffffff1681526020018273ffffffffffffffffffffffffffffffffffffffff1673ffffffffffffffffffffffffffffffffffffffff1681526020019250505060405180910390a160019250505090565b600080600181111561281757fe5b6000809054906101000a900460ff16600181111561283157fe5b1461283b57600080fd5b83600960003373ffffffffffffffffffffffffffffffffffffffff1673ffffffffffffffffffffffffffffffffffffffff168152602001908152602001600020541015801561288a5750600084115b61289357600080fd5b600073ffffffffffffffffffffffffffffffffffffffff16600260003373ffffffffffffffffffffffffffffffffffffffff1673ffffffffffffffffffffffffffffffffffffffff16815260200190815260200160002060030160009054906101000a900473ffffffffffffffffffffffffffffffffffffffff1673ffffffffffffffffffffffffffffffffffffffff1614801561297357506000600260003373ffffffffffffffffffffffffffffffffffffffff1673ffffffffffffffffffffffffffffffffffffffff16815260200190815260200160002060000154145b61297c57600080fd5b60008311801561298e5750610e108210155b61299757600080fd5b83600960003373ffffffffffffffffffffffffffffffffffffffff1673ffffffffffffffffffffffffffffffffffffffff1681526020019081526020016000206000828254039250508190555083600260003373ffffffffffffffffffffffffffffffffffffffff1673ffffffffffffffffffffffffffffffffffffffff1681526020019081526020016000206000018190555082600260003373ffffffffffffffffffffffffffffffffffffffff1673ffffffffffffffffffffffffffffffffffffffff1681526020019081526020016000206001018190555081600260003373ffffffffffffffffffffffffffffffffffffffff1673ffffffffffffffffffffffffffffffffffffffff168152602001908152602001600020600201819055503373ffffffffffffffffffffffffffffffffffffffff167f90a9eceab52715252ab1d154d77c32c3a27117d68723b35afd71c3e528eb70d385858560405180848152602001838152602001828152602001935050505060405180910390a2600190509392505050565b6000600a60008473ffffffffffffffffffffffffffffffffffffffff1673ffffffffffffffffffffffffffffffffffffffff16815260200190815260200160002060008373ffffffffffffffffffffffffffffffffffffffff1673ffffffffffffffffffffffffffffffffffffffff16815260200190815260200160002054905092915050565b6000806001811115612bb757fe5b6000809054906101000a900460ff166001811115612bd157fe5b14612bdb57600080fd5b600073ffffffffffffffffffffffffffffffffffffffff16600360003373ffffffffffffffffffffffffffffffffffffffff1673ffffffffffffffffffffffffffffffffffffffff16815260200190815260200160002060020160009054906101000a900473ffffffffffffffffffffffffffffffffffffffff1673ffffffffffffffffffffffffffffffffffffffff161415612c7757600080fd5b81600360003373ffffffffffffffffffffffffffffffffffffffff1673ffffffffffffffffffffffffffffffffffffffff168152602001908152602001600020600101541015612cc657600080fd5b81600360003373ffffffffffffffffffffffffffffffffffffffff1673ffffffffffffffffffffffffffffffffffffffff1681526020019081526020016000206001016000828254039250508190555081600160003373ffffffffffffffffffffffffffffffffffffffff1673ffffffffffffffffffffffffffffffffffffffff168152602001908152602001600020600101600082825401925050819055503373ffffffffffffffffffffffffffffffffffffffff167f089fbe1cd42a8f68ef9a0073f280a16d62d31223e15bd81eefeed25769a767ae836040518082815260200191505060405180910390a260019050919050565b6000806001811115612dcb57fe5b6000809054906101000a900460ff166001811115612de557fe5b14612def57600080fd5b600073ffffffffffffffffffffffffffffffffffffffff16600260003373ffffffffffffffffffffffffffffffffffffffff1673ffffffffffffffffffffffffffffffffffffffff16815260200190815260200160002060030160009054906101000a900473ffffffffffffffffffffffffffffffffffffffff1673ffffffffffffffffffffffffffffffffffffffff1614612e8a57600080fd5b6000600260003373ffffffffffffffffffffffffffffffffffffffff1673ffffffffffffffffffffffffffffffffffffffff1681526020019081526020016000206000015490506000600260003373ffffffffffffffffffffffffffffffffffffffff1673ffffffffffffffffffffffffffffffffffffffff168152602001908152602001600020600001819055506000600260003373ffffffffffffffffffffffffffffffffffffffff1673ffffffffffffffffffffffffffffffffffffffff168152602001908152602001600020600101819055506000600260003373ffffffffffffffffffffffffffffffffffffffff1673ffffffffffffffffffffffffffffffffffffffff1681526020019081526020016000206002018190555080600960003373ffffffffffffffffffffffffffffffffffffffff1673ffffffffffffffffffffffffffffffffffffffff168152602001908152602001600020600082825401925050819055503373ffffffffffffffffffffffffffffffffffffffff167fdf23490ffb4f2c066b5d9f245079c179b5af5ecffbec540ffe2fa69604f01aa560405160405180910390a2600191505090565b6000600654905090565b6000600860009054906101000a900473ffffffffffffffffffffffffffffffffffffffff1673ffffffffffffffffffffffffffffffffffffffff163373ffffffffffffffffffffffffffffffffffffffff16146130a757600080fd5b81600860006101000a81548173ffffffffffffffffffffffffffffffffffffffff021916908373ffffffffffffffffffffffffffffffffffffffff1602179055508173ffffffffffffffffffffffffffffffffffffffff163373ffffffffffffffffffffffffffffffffffffffff167f0d18b5fd22306e373229b9439188228edca81207d1667f604daf6cef8aa3ee6760405160405180910390a36001905091905056fea165627a7a72305820af36c504840c3f10f711431f9cf1aa123a73f24fb63a28a4aeab37961736b0c80029",
  "source": "pragma solidity ^0.5.7;\r\n\r\n/// Contracts.\r\nimport \"./Commit.sol\";\r\nimport \"./Leasing.sol\";\r\nimport \"./Status.sol\";\r\n\r\n/// Interfaces.\r\nimport \"../interfaces/IERC20.sol\";\r\n\r\n/// Libraries.\r\nimport \"../libraries/SafeMath.sol\";\r\n\r\n/**\r\n  * @title OpenHouseToken\r\n  * @author George Kamtziridis, gkamtzir@auth.gr\r\n  * @notice This is the core contract that implements the token.\r\n  */\r\ncontract OpenHouseToken is IERC20, Status, Commit, Leasing {\r\n\tusing SafeMath for uint256;\r\n\r\n    string private name;\r\n    string private symbol;\r\n    uint256 private decimals;\r\n    uint256 private _totalSupply;\r\n\r\n    address private _owner;\r\n    \r\n    mapping(address => uint256) private _balanceOf;\r\n    mapping(address => mapping(address => uint256)) private _allowance;\r\n\r\n    /// Events.\r\n\r\n    event Approval(\r\n        address indexed from,\r\n        address indexed to,\r\n        uint256 value\r\n    );\r\n\r\n    event Transfer(\r\n      address indexed from,\r\n      address indexed to,\r\n      uint256 value\r\n    );\r\n\r\n    event OwnershipTransfered(\r\n        address indexed from,\r\n        address indexed to\r\n    );\r\n\r\n    /// Modifiers.\r\n\r\n    /// Verifies that sender is the owner of the contract.\r\n    modifier onlyOwner() {\r\n        require(msg.sender == _owner);\r\n        _;\r\n    }\r\n\r\n    constructor(uint256 totalSupply) public {\r\n        name = \"OpenHouse Token\";\r\n        symbol = \"OHT\";\r\n        decimals = 18;\r\n        _totalSupply = totalSupply;\r\n        _balanceOf[msg.sender] = _totalSupply;\r\n        _owner = msg.sender;\r\n        status = Status.Activated;\r\n    }\r\n\r\n    /**\r\n      * @notice A getter function for the name variable.\r\n      * @return The name of the token.\r\n      */\r\n    function getName() public view returns(string memory) {\r\n        return name;\r\n    }\r\n\r\n    /** \r\n      * @notice A getter function for the symbol variable.\r\n      * @return The symbol of the token.\r\n      */\r\n    function getSymbol() public view returns(string memory) {\r\n        return symbol;\r\n    }\r\n\r\n    /**\r\n      * @notice A getter function for the decimal variable.\r\n      * @return The number of decimals the contract supports.\r\n      */\r\n    function getDecimals() public view returns(uint256) {\r\n        return decimals;\r\n    }\r\n\r\n    /**\r\n      * @notice A getter function for the onwer of the smart contract.\r\n      * @return The address of the owner of the smart contract.\r\n      */\r\n    function getOwner() public view returns(address) {\r\n        return _owner;\r\n    }\r\n\r\n    /**\r\n      * @notice A getter function for the total supply.\r\n      * @return The initial total supply of tokens in contract.\r\n      */\r\n    function totalSupply() public view returns(uint256) {\r\n        return _totalSupply;\r\n    }\r\n\r\n    /**\r\n      * @notice Activates the contract.\r\n      * @return A boolean indicating if the activation has completed\r\n      * successfully\r\n      */\r\n    function activate() public onlyOwner() returns(bool) {\r\n        status = Status.Activated;\r\n\r\n        emit Activated(block.number);\r\n\r\n        return true;\r\n    }\r\n\r\n    /**\r\n      * @notice Deactivates the contract.\r\n      * @return A boolean indicating if the deactivation has completed\r\n      * successfully\r\n      */\r\n    function deactivate() public onlyOwner() returns(bool){\r\n        status = Status.Deactivated;\r\n\r\n        emit Deactivated(block.number);\r\n\r\n        return true;\r\n    }\r\n\r\n    /**\r\n      * @notice Transfers the ownership of the contract.\r\n      * @return A boolean value indicating if the transfer has completed successfully.\r\n      */\r\n    function transferOwnership(address newOwner) public onlyOwner() returns(bool) {\r\n        _owner = newOwner;\r\n\r\n        emit OwnershipTransfered(msg.sender, newOwner);\r\n\r\n        return true;\r\n    }\r\n\r\n    /**\r\n      * @notice A getter function for the balance of an address.\r\n      * @param owner The address of a wallet.\r\n      * @return The current balance of the given address.\r\n      */\r\n    function balanceOf(address owner) public view returns(uint256) {\r\n        return _balanceOf[owner];\r\n    }\r\n\r\n    /**\r\n      * @notice Approves the spending of a specified number of tokens from\r\n      * the msg.sender to the given spender.\r\n      * @param spender The account which is approved to spend the tokens.\r\n      * @param value The number of tokens that are approved to be spent.\r\n      * @return A boolean indicating if the approval has completed successfully. \r\n      */\r\n    function approve(address spender, uint256 value) public isActivated() returns(bool) {\r\n        _allowance[msg.sender][spender] = value;\r\n\r\n        emit Approval(msg.sender, spender, value);\r\n\r\n        return true;\r\n    }\r\n\r\n    /**\r\n      * @notice A getter function for the allowance of token spending from\r\n      * one address to another.\r\n      * @param owner The account the tokens are approved from.\r\n      * @param spender The account the tokens are approved for.\r\n      * @return The number of tokens approved.\r\n      */\r\n    function allowance(address owner, address spender) public view returns(uint256) {\r\n        return _allowance[owner][spender];\r\n    }\r\n\r\n\t/**\r\n\t  * @notice Transfers the given amount of tokens to the given\r\n\t  * address from msg.sender.\r\n\t  * @param to The address of the receiver.\r\n\t  * @param value The amount of tokens to be sent.\r\n\t  * @return A boolean indicating if the transfer has completed successfully.\r\n\t  */\r\n    function transfer(address to, uint256 value) public isActivated() returns(bool) {\r\n        require(_balanceOf[msg.sender] >= value);\r\n\r\n        _balanceOf[msg.sender] -= value;\r\n        _balanceOf[to] += value;\r\n\r\n        emit Transfer(msg.sender, to, value);\r\n\r\n        return true;\r\n    }\r\n\r\n    /**\r\n      * @notice Transfers tokens on behalf of another account.\r\n      * @param from The account from which the tokens will be transfered.\r\n      * @param to The account to which the the tokens will be transfered.\r\n      * @param value The number of tokens to be transfered.\r\n      * @return A boolean indicating if the transfer has completed successfully.\r\n      */\r\n    function transferFrom(address from, address to, uint256 value) public isActivated() returns(bool) {\r\n        require(_allowance[from][msg.sender] >= value);\r\n        require(_balanceOf[from] >= value);\r\n\r\n        _balanceOf[from] -= value;\r\n        _balanceOf[to] += value;\r\n\r\n        _allowance[from][msg.sender] -= value;\r\n\r\n        emit Transfer(from, to, value);\r\n\r\n        return true;\r\n    }\r\n\r\n    /**\r\n      * @notice Commits the specified amount of tokens from sender's balance.\r\n      * @param numberOfTokens The amount of tokens to be commited from balance.\r\n      * @return A boolean indicating if the commit has completed successfully.\r\n      */\r\n    function commitFromBalance(uint256 numberOfTokens) public isActivated() returns(bool) {\r\n        require(_balanceOf[msg.sender] >= numberOfTokens);\r\n\r\n        _balanceOf[msg.sender] -= numberOfTokens;\r\n        commited[msg.sender].fromBalance += numberOfTokens;\r\n\r\n        emit CommitedFromBalance(msg.sender, numberOfTokens);\r\n\r\n        return true;\r\n    }\r\n\r\n    /**\r\n      * @notice Withdraws the specified amount of tokens back to sender's balance.\r\n      * @param numberOfTokens The amount of tokens to be withdrawn back to balance.\r\n      * @return A boolean indicating if the withdrawal has completed successfully.\r\n      */\r\n    function commitToBalance(uint256 numberOfTokens) public isActivated() returns(bool) {\r\n        require(commited[msg.sender].fromBalance >= numberOfTokens);\r\n\r\n        commited[msg.sender].fromBalance -= numberOfTokens;\r\n        _balanceOf[msg.sender] += numberOfTokens;\r\n\r\n        emit CommitedToBalance(msg.sender, numberOfTokens);\r\n\r\n        return true;\r\n    }\r\n\r\n    /**\r\n      * @notice Commits the specified amount of tokens from sender's rented tokens.\r\n      * @param numberOfTokens The amount of tokens to be commited from the rented tokens.\r\n      * @return A boolean indicating if the commit has completed successfully.\r\n      */\r\n    function commitFromRented(uint256 numberOfTokens) public isActivated() returns(bool) {\r\n        require(rent[msg.sender].rentedFrom != address(0));\r\n        require(rent[msg.sender].availableNumberOfTokens >= numberOfTokens);\r\n\r\n        rent[msg.sender].availableNumberOfTokens -= numberOfTokens;\r\n        commited[msg.sender].fromRented += numberOfTokens;\r\n\r\n        emit CommitedFromRented(msg.sender, numberOfTokens);\r\n\r\n        return true;\r\n    }\r\n\r\n    /**\r\n      * @notice Withdraws the specified amount of tokens back to sender's rented tokens.\r\n      * @param numberOfTokens The amount of tokens to be withdrawn back to rented tokens.\r\n      * @return A boolean indicating if the withdrawal has completed successfully.\r\n      */\r\n    function commitToRented(uint256 numberOfTokens) public isActivated() returns(bool) {\r\n        require(rent[msg.sender].rentedFrom != address(0));\r\n        require(commited[msg.sender].fromRented >= numberOfTokens);\r\n\r\n        commited[msg.sender].fromRented -= numberOfTokens;\r\n        rent[msg.sender].availableNumberOfTokens += numberOfTokens;\r\n\r\n        emit CommitedToRented(msg.sender, numberOfTokens);\r\n\r\n        return true;\r\n    }\r\n\r\n    /**\r\n      * @notice Creates and offer to lease tokens.\r\n      * @param numberOfTokens The number of tokens to be leased.\r\n      * @param price The price of the leasing.\r\n      * @param duration The duration of the leasing in number of blocks.\r\n      * @return A boolean indicating if the offer was created successfully.\r\n      */\r\n    function createOffer(uint256 numberOfTokens, uint256 price, uint256 duration) public isActivated() returns(bool) {\r\n        require(_balanceOf[msg.sender] >= numberOfTokens && numberOfTokens > 0);\r\n        require(offer[msg.sender].leasedTo == address(0) && offer[msg.sender].numberOfTokens == 0);\r\n        /// Making sure that the price has a non-zero value and the minimum duration\r\n        /// is approximately 1 hour (3600 seconds).\r\n        require(price > 0 && duration >= 3600);\r\n\r\n        _balanceOf[msg.sender] -= numberOfTokens;\r\n\r\n        offer[msg.sender].numberOfTokens = numberOfTokens;\r\n        offer[msg.sender].price = price;\r\n        offer[msg.sender].duration = duration;\r\n\r\n        emit OfferCreated(msg.sender, numberOfTokens, price, duration);\r\n        \r\n        return true;\r\n    }\r\n\r\n    /**\r\n      * @notice Removes sender's existing offer.\r\n      * @return A boolean indicating if the removal has completed successfully.\r\n      */\r\n    function removeOffer() public isActivated() returns(bool) {\r\n        require(offer[msg.sender].leasedTo == address(0));\r\n\r\n        uint256 numberOfTokens = offer[msg.sender].numberOfTokens;\r\n\r\n        offer[msg.sender].numberOfTokens = 0;\r\n        offer[msg.sender].price = 0;\r\n        offer[msg.sender].duration = 0;\r\n\r\n        _balanceOf[msg.sender] += numberOfTokens;\r\n\r\n        emit OfferRemoved(msg.sender);\r\n\r\n        return true;\r\n    }\r\n\r\n    /**\r\n      * @notice Rents tokens from the specified address's offer.\r\n      * @param from The address from which the offer will be accepted.\r\n      * @return A boolean indicating if the rent has completed successfully.\r\n      */\r\n    function leaseFrom(address payable from) public isActivated() payable returns(bool) {\r\n        require(rent[msg.sender].rentedFrom == address(0));\r\n        require(offer[from].leasedTo == address(0));\r\n        require(msg.value == offer[from].price);\r\n\r\n        uint256 numberOfTokens = offer[from].numberOfTokens;\r\n\r\n        offer[from].leasedTo = msg.sender;\r\n        offer[from].leasedTimestamp = block.timestamp;\r\n        offer[from].numberOfTokens = 0;\r\n\r\n        rent[msg.sender].rentedFrom = from;\r\n        rent[msg.sender].numberOfTokens = numberOfTokens;\r\n        rent[msg.sender].availableNumberOfTokens = numberOfTokens;\r\n\r\n        /// Transfer ether.\r\n        from.transfer(msg.value);\r\n\r\n        emit Leased(from, msg.sender);\r\n\r\n        return true;\r\n    }\r\n\r\n    /**\r\n      * @notice Terminates the leasing of the sender.\r\n      * @return A boolean indicating if the termination has completed successfully.\r\n      */\r\n    function terminateLeasing() public isActivated() returns(bool) {\r\n        require(offer[msg.sender].leasedTo != address(0));\r\n        require(block.timestamp >= offer[msg.sender].leasedTimestamp + offer[msg.sender].duration);\r\n\r\n        address to = offer[msg.sender].leasedTo;\r\n        uint256 numberOfTokens = rent[to].numberOfTokens;\r\n\r\n        /// Clearing all commited tokens that are rented.\r\n        commited[to].fromRented = 0;\r\n        \r\n        /// Clearing the rent instance.\r\n        rent[to].availableNumberOfTokens = 0;\r\n        rent[to].numberOfTokens = 0;\r\n        rent[to].rentedFrom = address(0);\r\n\r\n        /// Clearing the offer instance.\r\n        offer[msg.sender].leasedTo = address(0);\r\n        offer[msg.sender].leasedTimestamp = 0;\r\n        offer[msg.sender].numberOfTokens = numberOfTokens;\r\n\r\n        emit LeasingTerminated(msg.sender, to);\r\n\r\n        return true;\r\n    }\r\n\r\n}",
  "sourcePath": "/home/gkamtzir/thesis/Ethereum-ICO-Diploma-Thesis/contracts/OpenHouseToken.sol",
  "compiler": {
    "name": "solc",
    "version": "0.5.7+commit.6da8b019.Emscripten.clang"
  },
  "schemaVersion": "3.0.2",
  "updatedAt": "2019-05-09T15:14:47.585Z",
  "devdoc": {
    "author": "George Kamtziridis, gkamtzir@auth.gr\r",
    "methods": {
      "activate()": {
        "return": "A boolean indicating if the activation has completed\r successfully\r"
      },
      "allowance(address,address)": {
        "params": {
          "owner": "The account the tokens are approved from.\r",
          "spender": "The account the tokens are approved for.\r"
        },
        "return": "The number of tokens approved.\r"
      },
      "approve(address,uint256)": {
        "params": {
          "spender": "The account which is approved to spend the tokens.\r",
          "value": "The number of tokens that are approved to be spent.\r"
        },
        "return": "A boolean indicating if the approval has completed successfully. \r"
      },
      "balanceOf(address)": {
        "params": {
          "owner": "The address of a wallet.\r"
        },
        "return": "The current balance of the given address.\r"
      },
      "commitFromBalance(uint256)": {
        "params": {
          "numberOfTokens": "The amount of tokens to be commited from balance.\r"
        },
        "return": "A boolean indicating if the commit has completed successfully.\r"
      },
      "commitFromRented(uint256)": {
        "params": {
          "numberOfTokens": "The amount of tokens to be commited from the rented tokens.\r"
        },
        "return": "A boolean indicating if the commit has completed successfully.\r"
      },
      "commitToBalance(uint256)": {
        "params": {
          "numberOfTokens": "The amount of tokens to be withdrawn back to balance.\r"
        },
        "return": "A boolean indicating if the withdrawal has completed successfully.\r"
      },
      "commitToRented(uint256)": {
        "params": {
          "numberOfTokens": "The amount of tokens to be withdrawn back to rented tokens.\r"
        },
        "return": "A boolean indicating if the withdrawal has completed successfully.\r"
      },
      "createOffer(uint256,uint256,uint256)": {
        "params": {
          "duration": "The duration of the leasing in number of blocks.\r",
          "numberOfTokens": "The number of tokens to be leased.\r",
          "price": "The price of the leasing.\r"
        },
        "return": "A boolean indicating if the offer was created successfully.\r"
      },
      "deactivate()": {
        "return": "A boolean indicating if the deactivation has completed\r successfully\r"
      },
      "getCommitedFromBalance()": {
        "return": "The number of commited tokens of the sender that\r come from the balance.\r"
      },
      "getCommitedFromRented()": {
        "return": "The number of commited tokens of the sender that\r come from the rented tokens.\r"
      },
      "getDecimals()": {
        "return": "The number of decimals the contract supports.\r"
      },
      "getName()": {
        "return": "The name of the token.\r"
      },
      "getOfferDuration(address)": {
        "params": {
          "from": "The address that created the offer.\r"
        },
        "return": "The duration of the offer.\r"
      },
      "getOfferLeasedTimestamp(address)": {
        "params": {
          "from": "The address that created the offer.\r"
        },
        "return": "The timestamp at which the offer got accepted.\r"
      },
      "getOfferLeasedTo(address)": {
        "params": {
          "from": "The address that created the offer.\r"
        },
        "return": "The address that currently rented from the specified address.\r"
      },
      "getOfferNumberOfTokens(address)": {
        "params": {
          "from": "The address that created the offer.\r"
        },
        "return": "The number of tokens the offer currently provides.\r"
      },
      "getOfferPrice(address)": {
        "params": {
          "from": "The address that created the offer.\r"
        },
        "return": "The price of the offer.\r"
      },
      "getOwner()": {
        "return": "The address of the owner of the smart contract.\r"
      },
      "getRentedAvailableTokens(address)": {
        "params": {
          "from": "The address that rented the tokens.\r"
        },
        "return": "The number of available tokens the given address\r currently has.\r"
      },
      "getRentedFrom(address)": {
        "params": {
          "from": "The address that rented the tokens.\r"
        },
        "return": "The address from which the given address has rented\r the tokens.\r"
      },
      "getRentedNumberOfTokens(address)": {
        "params": {
          "from": "The address that rented the tokens.\r"
        },
        "return": "The number of tokens that the given address\r has currently rented.\r"
      },
      "getStatus()": {
        "return": "The current status of the contract.\r"
      },
      "getSymbol()": {
        "return": "The symbol of the token.\r"
      },
      "leaseFrom(address)": {
        "params": {
          "from": "The address from which the offer will be accepted.\r"
        },
        "return": "A boolean indicating if the rent has completed successfully.\r"
      },
      "removeOffer()": {
        "return": "A boolean indicating if the removal has completed successfully.\r"
      },
      "terminateLeasing()": {
        "return": "A boolean indicating if the termination has completed successfully.\r"
      },
      "totalSupply()": {
        "return": "The initial total supply of tokens in contract.\r"
      },
      "transfer(address,uint256)": {
        "params": {
          "to": "The address of the receiver.\r",
          "value": "The amount of tokens to be sent.\r"
        },
        "return": "A boolean indicating if the transfer has completed successfully.\r"
      },
      "transferFrom(address,address,uint256)": {
        "params": {
          "from": "The account from which the tokens will be transfered.\r",
          "to": "The account to which the the tokens will be transfered.\r",
          "value": "The number of tokens to be transfered.\r"
        },
        "return": "A boolean indicating if the transfer has completed successfully.\r"
      },
      "transferOwnership(address)": {
        "return": "A boolean value indicating if the transfer has completed successfully.\r"
      }
    },
    "title": "OpenHouseToken\r"
  },
  "userdoc": {
    "methods": {
      "activate()": {
        "notice": "Activates the contract.\r"
      },
      "allowance(address,address)": {
        "notice": "A getter function for the allowance of token spending from\r one address to another.\r"
      },
      "approve(address,uint256)": {
        "notice": "Approves the spending of a specified number of tokens from\r the msg.sender to the given spender.\r"
      },
      "balanceOf(address)": {
        "notice": "A getter function for the balance of an address.\r"
      },
      "commitFromBalance(uint256)": {
        "notice": "Commits the specified amount of tokens from sender's balance.\r"
      },
      "commitFromRented(uint256)": {
        "notice": "Commits the specified amount of tokens from sender's rented tokens.\r"
      },
      "commitToBalance(uint256)": {
        "notice": "Withdraws the specified amount of tokens back to sender's balance.\r"
      },
      "commitToRented(uint256)": {
        "notice": "Withdraws the specified amount of tokens back to sender's rented tokens.\r"
      },
      "createOffer(uint256,uint256,uint256)": {
        "notice": "Creates and offer to lease tokens.\r"
      },
      "deactivate()": {
        "notice": "Deactivates the contract.\r"
      },
      "getCommitedFromBalance()": {
        "notice": "A getter function for the commited tokens of the\r sender that come from the balance.\r"
      },
      "getCommitedFromRented()": {
        "notice": "A getter function for the commited tokens of the\r sender that come from the rented tokens.\r"
      },
      "getDecimals()": {
        "notice": "A getter function for the decimal variable.\r"
      },
      "getName()": {
        "notice": "A getter function for the name variable.\r"
      },
      "getOfferDuration(address)": {
        "notice": "A getter function for the duration of the specified \r address's offer.\r"
      },
      "getOfferLeasedTimestamp(address)": {
        "notice": "A getter function for the timestamp at which the offer got accepted.\r"
      },
      "getOfferLeasedTo(address)": {
        "notice": "A getter function for the address that accepted the specified \r address's offer.\r"
      },
      "getOfferNumberOfTokens(address)": {
        "notice": "A getter function for the number of tokens in\r the specified address's offer.\r"
      },
      "getOfferPrice(address)": {
        "notice": "A getter function for the price of the specified \r address's offer.\r"
      },
      "getOwner()": {
        "notice": "A getter function for the onwer of the smart contract.\r"
      },
      "getRentedAvailableTokens(address)": {
        "notice": "A getter function for the available tokens of the given\r address.\r"
      },
      "getRentedFrom(address)": {
        "notice": "A getter function for the address from which the given address\r has rented the tokens.\r"
      },
      "getRentedNumberOfTokens(address)": {
        "notice": "A getter function for the number of tokens the given\r address has rented.\r"
      },
      "getStatus()": {
        "notice": "A getter function for contract's status.\r"
      },
      "getSymbol()": {
        "notice": "A getter function for the symbol variable.\r"
      },
      "leaseFrom(address)": {
        "notice": "Rents tokens from the specified address's offer.\r"
      },
      "removeOffer()": {
        "notice": "Removes sender's existing offer.\r"
      },
      "terminateLeasing()": {
        "notice": "Terminates the leasing of the sender.\r"
      },
      "totalSupply()": {
        "notice": "A getter function for the total supply.\r"
      },
      "transfer(address,uint256)": {
        "notice": "Transfers the given amount of tokens to the given\r address from msg.sender.\r"
      },
      "transferFrom(address,address,uint256)": {
        "notice": "Transfers tokens on behalf of another account.\r"
      },
      "transferOwnership(address)": {
        "notice": "Transfers the ownership of the contract.\r"
      }
    },
    "notice": "This is the core contract that implements the token.\r"
  }
}