{
  "contractName": "PreICOSale",
  "abi": [
    {
      "constant": false,
      "inputs": [],
      "name": "activate",
      "outputs": [
        {
          "name": "",
          "type": "bool"
        }
      ],
      "payable": false,
      "stateMutability": "nonpayable",
      "type": "function"
    },
    {
      "constant": true,
      "inputs": [],
      "name": "getStartTimestamp",
      "outputs": [
        {
          "name": "",
          "type": "uint256"
        }
      ],
      "payable": false,
      "stateMutability": "view",
      "type": "function"
    },
    {
      "constant": true,
      "inputs": [],
      "name": "getRedeemableAfterTimestamp",
      "outputs": [
        {
          "name": "",
          "type": "uint256"
        }
      ],
      "payable": false,
      "stateMutability": "view",
      "type": "function"
    },
    {
      "constant": false,
      "inputs": [
        {
          "name": "numberOfTokens",
          "type": "uint256"
        }
      ],
      "name": "buyTokens",
      "outputs": [
        {
          "name": "",
          "type": "bool"
        }
      ],
      "payable": true,
      "stateMutability": "payable",
      "type": "function"
    },
    {
      "constant": true,
      "inputs": [],
      "name": "getTokensMaxCap",
      "outputs": [
        {
          "name": "",
          "type": "uint256"
        }
      ],
      "payable": false,
      "stateMutability": "view",
      "type": "function"
    },
    {
      "constant": true,
      "inputs": [],
      "name": "getTokenPrice",
      "outputs": [
        {
          "name": "",
          "type": "uint256"
        }
      ],
      "payable": false,
      "stateMutability": "view",
      "type": "function"
    },
    {
      "constant": true,
      "inputs": [],
      "name": "getStatus",
      "outputs": [
        {
          "name": "",
          "type": "uint8"
        }
      ],
      "payable": false,
      "stateMutability": "view",
      "type": "function"
    },
    {
      "constant": true,
      "inputs": [],
      "name": "getTokensMinCap",
      "outputs": [
        {
          "name": "",
          "type": "uint256"
        }
      ],
      "payable": false,
      "stateMutability": "view",
      "type": "function"
    },
    {
      "constant": false,
      "inputs": [],
      "name": "deactivate",
      "outputs": [
        {
          "name": "",
          "type": "bool"
        }
      ],
      "payable": false,
      "stateMutability": "nonpayable",
      "type": "function"
    },
    {
      "constant": false,
      "inputs": [],
      "name": "refundTokens",
      "outputs": [
        {
          "name": "",
          "type": "bool"
        }
      ],
      "payable": false,
      "stateMutability": "nonpayable",
      "type": "function"
    },
    {
      "constant": true,
      "inputs": [],
      "name": "getEndTimestamp",
      "outputs": [
        {
          "name": "",
          "type": "uint256"
        }
      ],
      "payable": false,
      "stateMutability": "view",
      "type": "function"
    },
    {
      "constant": true,
      "inputs": [],
      "name": "getOwner",
      "outputs": [
        {
          "name": "",
          "type": "address"
        }
      ],
      "payable": false,
      "stateMutability": "view",
      "type": "function"
    },
    {
      "constant": true,
      "inputs": [
        {
          "name": "buyer",
          "type": "address"
        }
      ],
      "name": "getBalanceOf",
      "outputs": [
        {
          "name": "",
          "type": "uint256"
        }
      ],
      "payable": false,
      "stateMutability": "view",
      "type": "function"
    },
    {
      "constant": false,
      "inputs": [],
      "name": "reallocateTokens",
      "outputs": [
        {
          "name": "",
          "type": "bool"
        }
      ],
      "payable": false,
      "stateMutability": "nonpayable",
      "type": "function"
    },
    {
      "constant": false,
      "inputs": [],
      "name": "redeemTokens",
      "outputs": [
        {
          "name": "",
          "type": "bool"
        }
      ],
      "payable": false,
      "stateMutability": "nonpayable",
      "type": "function"
    },
    {
      "constant": true,
      "inputs": [],
      "name": "getTokensSold",
      "outputs": [
        {
          "name": "",
          "type": "uint256"
        }
      ],
      "payable": false,
      "stateMutability": "view",
      "type": "function"
    },
    {
      "constant": false,
      "inputs": [
        {
          "name": "newOwner",
          "type": "address"
        }
      ],
      "name": "transferOwnership",
      "outputs": [
        {
          "name": "",
          "type": "bool"
        }
      ],
      "payable": false,
      "stateMutability": "nonpayable",
      "type": "function"
    },
    {
      "inputs": [
        {
          "name": "token",
          "type": "address"
        },
        {
          "name": "price",
          "type": "uint256"
        },
        {
          "name": "minCap",
          "type": "uint256"
        },
        {
          "name": "maxCap",
          "type": "uint256"
        },
        {
          "name": "start",
          "type": "uint256"
        },
        {
          "name": "end",
          "type": "uint256"
        },
        {
          "name": "redeemableAfter",
          "type": "uint256"
        }
      ],
      "payable": false,
      "stateMutability": "nonpayable",
      "type": "constructor"
    },
    {
      "anonymous": false,
      "inputs": [
        {
          "indexed": true,
          "name": "from",
          "type": "address"
        },
        {
          "indexed": false,
          "name": "numberOfTokens",
          "type": "uint256"
        }
      ],
      "name": "Sold",
      "type": "event"
    },
    {
      "anonymous": false,
      "inputs": [
        {
          "indexed": true,
          "name": "from",
          "type": "address"
        },
        {
          "indexed": false,
          "name": "numberOfTokens",
          "type": "uint256"
        }
      ],
      "name": "Refunded",
      "type": "event"
    },
    {
      "anonymous": false,
      "inputs": [
        {
          "indexed": true,
          "name": "from",
          "type": "address"
        },
        {
          "indexed": false,
          "name": "numberOfTokens",
          "type": "uint256"
        }
      ],
      "name": "Redeemed",
      "type": "event"
    },
    {
      "anonymous": false,
      "inputs": [
        {
          "indexed": true,
          "name": "from",
          "type": "address"
        },
        {
          "indexed": false,
          "name": "numberOfTokens",
          "type": "uint256"
        }
      ],
      "name": "Reallocated",
      "type": "event"
    },
    {
      "anonymous": false,
      "inputs": [
        {
          "indexed": true,
          "name": "from",
          "type": "address"
        },
        {
          "indexed": true,
          "name": "to",
          "type": "address"
        }
      ],
      "name": "OwnershipTransfered",
      "type": "event"
    },
    {
      "anonymous": false,
      "inputs": [
        {
          "indexed": true,
          "name": "blockNumber",
          "type": "uint256"
        }
      ],
      "name": "Activated",
      "type": "event"
    },
    {
      "anonymous": false,
      "inputs": [
        {
          "indexed": true,
          "name": "blockNumber",
          "type": "uint256"
        }
      ],
      "name": "Deactivated",
      "type": "event"
    }
  ],
  "bytecode": "0x608060405234801561001057600080fd5b5060405160e080611268833981018060405260e081101561003057600080fd5b810190808051906020019092919080519060200190929190805190602001909291908051906020019092919080519060200190929190805190602001909291908051906020019092919050505086868686868686600073ffffffffffffffffffffffffffffffffffffffff168773ffffffffffffffffffffffffffffffffffffffff1614156100be57600080fd5b6000861180156100ce5750600085115b80156100da5750600084115b6100e357600080fd5b8484116100ef57600080fd5b33600060016101000a81548173ffffffffffffffffffffffffffffffffffffffff021916908373ffffffffffffffffffffffffffffffffffffffff16021790555086600160006101000a81548173ffffffffffffffffffffffffffffffffffffffff021916908373ffffffffffffffffffffffffffffffffffffffff160217905550856002819055508460038190555083600481905550826006819055508160078190555080600881905550600060058190555060008060006101000a81548160ff021916908360018111156101c157fe5b02179055505050505050505050505050505050611085806101e36000396000f3fe60806040526004361061011b576000357c01000000000000000000000000000000000000000000000000000000009004806351b42b00116100b25780639b96eece116100815780639b96eece14610385578063b35e59c8146103ea578063e9a9c50c14610419578063ee7c0db014610448578063f2fde38b146104735761011b565b806351b42b00146102a557806371007509146102d457806374e94deb14610303578063893d20e81461032e5761011b565b8063486ddec3116100ee578063486ddec3146101eb5780634b94f50e146102165780634e69d56014610241578063513de7a81461027a5761011b565b80630f15f4c0146101205780631f89f25e1461014f57806323c445831461017a5780633610724e146101a5575b600080fd5b34801561012c57600080fd5b506101356104dc565b604051808215151515815260200191505060405180910390f35b34801561015b57600080fd5b5061016461058e565b6040518082815260200191505060405180910390f35b34801561018657600080fd5b5061018f610598565b6040518082815260200191505060405180910390f35b6101d1600480360360208110156101bb57600080fd5b81019080803590602001909291905050506105a2565b604051808215151515815260200191505060405180910390f35b3480156101f757600080fd5b506102006106c8565b6040518082815260200191505060405180910390f35b34801561022257600080fd5b5061022b6106d2565b6040518082815260200191505060405180910390f35b34801561024d57600080fd5b506102566106dc565b6040518082600181111561026657fe5b60ff16815260200191505060405180910390f35b34801561028657600080fd5b5061028f6106f2565b6040518082815260200191505060405180910390f35b3480156102b157600080fd5b506102ba6106fc565b604051808215151515815260200191505060405180910390f35b3480156102e057600080fd5b506102e96107ae565b604051808215151515815260200191505060405180910390f35b34801561030f57600080fd5b50610318610974565b6040518082815260200191505060405180910390f35b34801561033a57600080fd5b5061034361097e565b604051808273ffffffffffffffffffffffffffffffffffffffff1673ffffffffffffffffffffffffffffffffffffffff16815260200191505060405180910390f35b34801561039157600080fd5b506103d4600480360360208110156103a857600080fd5b81019080803573ffffffffffffffffffffffffffffffffffffffff1690602001909291905050506109a7565b6040518082815260200191505060405180910390f35b3480156103f657600080fd5b506103ff6109f0565b604051808215151515815260200191505060405180910390f35b34801561042557600080fd5b5061042e610cbd565b604051808215151515815260200191505060405180910390f35b34801561045457600080fd5b5061045d610f50565b6040518082815260200191505060405180910390f35b34801561047f57600080fd5b506104c26004803603602081101561049657600080fd5b81019080803573ffffffffffffffffffffffffffffffffffffffff169060200190929190505050610f5a565b604051808215151515815260200191505060405180910390f35b60008060019054906101000a900473ffffffffffffffffffffffffffffffffffffffff1673ffffffffffffffffffffffffffffffffffffffff163373ffffffffffffffffffffffffffffffffffffffff161461053757600080fd5b60008060006101000a81548160ff0219169083600181111561055557fe5b0217905550437f3ec796be1be7d03bff3a62b9fa594a60e947c1809bced06d929f145308ae57ce60405160405180910390a26001905090565b6000600654905090565b6000600854905090565b60008060018111156105b057fe5b6000809054906101000a900460ff1660018111156105ca57fe5b146105d457600080fd5b60065442101580156105e857506007544211155b6105f157600080fd5b8160055460045403101561060457600080fd5b6002548202341461061457600080fd5b8160056000828254019250508190555081600960003373ffffffffffffffffffffffffffffffffffffffff1673ffffffffffffffffffffffffffffffffffffffff168152602001908152602001600020600082825401925050819055503373ffffffffffffffffffffffffffffffffffffffff167fae92ab4b6f8f401ead768d3273e6bb937a13e39827d19c6376e8fd4512a05d9a836040518082815260200191505060405180910390a260019050919050565b6000600454905090565b6000600254905090565b60008060009054906101000a900460ff16905090565b6000600354905090565b60008060019054906101000a900473ffffffffffffffffffffffffffffffffffffffff1673ffffffffffffffffffffffffffffffffffffffff163373ffffffffffffffffffffffffffffffffffffffff161461075757600080fd5b60016000806101000a81548160ff0219169083600181111561077557fe5b0217905550437fed48e4e899b34abded07dd8f092a22585a3fdec7db6b83f3927af165bf04cb1e60405160405180910390a26001905090565b60008060018111156107bc57fe5b6000809054906101000a900460ff1660018111156107d657fe5b146107e057600080fd5b60075442116107ee57600080fd5b600354600554106107fe57600080fd5b6000600960003373ffffffffffffffffffffffffffffffffffffffff1673ffffffffffffffffffffffffffffffffffffffff168152602001908152602001600020541161084a57600080fd5b6000600960003373ffffffffffffffffffffffffffffffffffffffff1673ffffffffffffffffffffffffffffffffffffffff1681526020019081526020016000205490506000600960003373ffffffffffffffffffffffffffffffffffffffff1673ffffffffffffffffffffffffffffffffffffffff168152602001908152602001600020819055503373ffffffffffffffffffffffffffffffffffffffff166108fc60025483029081150290604051600060405180830381858888f1935050505015801561091d573d6000803e3d6000fd5b503373ffffffffffffffffffffffffffffffffffffffff167fd7dee2702d63ad89917b6a4da9981c90c4d24f8c2bdfd64c604ecae57d8d0651826040518082815260200191505060405180910390a2600191505090565b6000600754905090565b60008060019054906101000a900473ffffffffffffffffffffffffffffffffffffffff16905090565b6000600960008373ffffffffffffffffffffffffffffffffffffffff1673ffffffffffffffffffffffffffffffffffffffff168152602001908152602001600020549050919050565b60008060018111156109fe57fe5b6000809054906101000a900460ff166001811115610a1857fe5b14610a2257600080fd5b6007544211610a3057600080fd5b600060019054906101000a900473ffffffffffffffffffffffffffffffffffffffff1673ffffffffffffffffffffffffffffffffffffffff163373ffffffffffffffffffffffffffffffffffffffff1614610a8a57600080fd5b600060035460055410610b1457600554600454039050600060019054906101000a900473ffffffffffffffffffffffffffffffffffffffff1673ffffffffffffffffffffffffffffffffffffffff166108fc600254600554029081150290604051600060405180830381858888f19350505050158015610b0e573d6000803e3d6000fd5b50610b1a565b60045490505b600160009054906101000a900473ffffffffffffffffffffffffffffffffffffffff1673ffffffffffffffffffffffffffffffffffffffff1663a9059cbb600060019054906101000a900473ffffffffffffffffffffffffffffffffffffffff16836040518363ffffffff167c0100000000000000000000000000000000000000000000000000000000028152600401808373ffffffffffffffffffffffffffffffffffffffff1673ffffffffffffffffffffffffffffffffffffffff16815260200182815260200192505050602060405180830381600087803b158015610c0157600080fd5b505af1158015610c15573d6000803e3d6000fd5b505050506040513d6020811015610c2b57600080fd5b8101908080519060200190929190505050610c4557600080fd5b600060019054906101000a900473ffffffffffffffffffffffffffffffffffffffff1673ffffffffffffffffffffffffffffffffffffffff167fee9316440d6e2f8b6f1392efbb896bf3feb2161a7b417a2c0e28ab6f43dbbc09826040518082815260200191505060405180910390a2600191505090565b6000806001811115610ccb57fe5b6000809054906101000a900460ff166001811115610ce557fe5b14610cef57600080fd5b6007544211610cfd57600080fd5b6008544211610d0b57600080fd5b6003546005541015610d1c57600080fd5b6000600960003373ffffffffffffffffffffffffffffffffffffffff1673ffffffffffffffffffffffffffffffffffffffff1681526020019081526020016000205411610d6857600080fd5b6000600960003373ffffffffffffffffffffffffffffffffffffffff1673ffffffffffffffffffffffffffffffffffffffff1681526020019081526020016000205490506000600960003373ffffffffffffffffffffffffffffffffffffffff1673ffffffffffffffffffffffffffffffffffffffff16815260200190815260200160002081905550600160009054906101000a900473ffffffffffffffffffffffffffffffffffffffff1673ffffffffffffffffffffffffffffffffffffffff1663a9059cbb33836040518363ffffffff167c0100000000000000000000000000000000000000000000000000000000028152600401808373ffffffffffffffffffffffffffffffffffffffff1673ffffffffffffffffffffffffffffffffffffffff16815260200182815260200192505050602060405180830381600087803b158015610eb657600080fd5b505af1158015610eca573d6000803e3d6000fd5b505050506040513d6020811015610ee057600080fd5b8101908080519060200190929190505050610efa57600080fd5b3373ffffffffffffffffffffffffffffffffffffffff167f4896181ff8f4543cc00db9fe9b6fb7e6f032b7eb772c72ab1ec1b4d2e03b9369826040518082815260200191505060405180910390a2600191505090565b6000600554905090565b60008060019054906101000a900473ffffffffffffffffffffffffffffffffffffffff1673ffffffffffffffffffffffffffffffffffffffff163373ffffffffffffffffffffffffffffffffffffffff1614610fb557600080fd5b81600060016101000a81548173ffffffffffffffffffffffffffffffffffffffff021916908373ffffffffffffffffffffffffffffffffffffffff1602179055508173ffffffffffffffffffffffffffffffffffffffff163373ffffffffffffffffffffffffffffffffffffffff167f0d18b5fd22306e373229b9439188228edca81207d1667f604daf6cef8aa3ee6760405160405180910390a36001905091905056fea165627a7a723058200f506cc05a88800c5bf54f8323b2e1ae47132310feb52d5e0244d9a5402a9cee0029",
  "source": "pragma solidity ^0.5.7;\r\n\r\n/// Contracts.\r\nimport \"./Sale.sol\";\r\n\r\ncontract PreICOSale is Sale {\r\n\r\n    constructor(\r\n        address token,\r\n        uint256 price,\r\n        uint256 minCap,\r\n        uint256 maxCap,\r\n        uint256 start,\r\n        uint256 end,\r\n        uint256 redeemableAfter)\r\n        Sale(\r\n            token,\r\n            price,\r\n            minCap,\r\n            maxCap,\r\n            start,\r\n            end,\r\n            redeemableAfter)\r\n        public\r\n    {\r\n        \r\n    }\r\n\r\n}",
  "sourcePath": "/home/gkamtzir/thesis/Ethereum-ICO-Diploma-Thesis/contracts/PreICOSale.sol",
  "compiler": {
    "name": "solc",
    "version": "0.5.7+commit.6da8b019.Emscripten.clang"
  },
  "schemaVersion": "3.0.2",
  "updatedAt": "2019-05-09T15:14:41.616Z",
  "devdoc": {
    "methods": {
      "activate()": {
        "return": "A boolean indicating if the activation has completed\r successfully.\r"
      },
      "buyTokens(uint256)": {
        "params": {
          "numberOfTokens": "The number of tokens the sender wants to buy.\r"
        },
        "return": "A boolean value indicating if the purchase has completed successfully.\r"
      },
      "deactivate()": {
        "return": "A boolean indicating if the deactivation has completed\r successfully.\r"
      },
      "getBalanceOf(address)": {
        "return": "The number of tokes bought by the given address.\r"
      },
      "getEndTimestamp()": {
        "return": "The timestamp when the sale will end.\r"
      },
      "getOwner()": {
        "return": "The address of the owner of the private sale.\r"
      },
      "getRedeemableAfterTimestamp()": {
        "return": "The timestamp when the tokens will be redeemable.\r"
      },
      "getStartTimestamp()": {
        "return": "The timestamp when the sale will begin.\r"
      },
      "getStatus()": {
        "return": "The current status of the contract.\r"
      },
      "getTokenPrice()": {
        "return": "The price of the token.\r"
      },
      "getTokensMaxCap()": {
        "return": "The maximum cap of the tokens.\r"
      },
      "getTokensMinCap()": {
        "return": "The minimum cap of the tokens.\r"
      },
      "getTokensSold()": {
        "return": "The number of tokens sold.\r"
      },
      "reallocateTokens()": {
        "return": "A boolean indicating if the reallocation has completed successfully.\r"
      },
      "redeemTokens()": {
        "return": "A boolean value indicating if the retrieval of\r the tokens has completed successfully.\r"
      },
      "refundTokens()": {
        "return": "A boolean value indicating if the refund has completed successfully.\r"
      },
      "transferOwnership(address)": {
        "return": "A boolean value indicating if the transfer has completed successfully.\r"
      }
    }
  },
  "userdoc": {
    "methods": {
      "activate()": {
        "notice": "Activates the contract.\r"
      },
      "buyTokens(uint256)": {
        "notice": "Enables sender to buy tokens.\r"
      },
      "deactivate()": {
        "notice": "Deactivates the contract.\r"
      },
      "getBalanceOf(address)": {
        "notice": "A getter function for the current balance of an address.\r"
      },
      "getEndTimestamp()": {
        "notice": "A getter function for sale's ending timestamp.\r"
      },
      "getOwner()": {
        "notice": "A getter function for the owner of the private\r sale.\r"
      },
      "getRedeemableAfterTimestamp()": {
        "notice": "A getter function for timestamp after which the\r tokens will be redeemamble.\r"
      },
      "getStartTimestamp()": {
        "notice": "A getter function for sale's starting timestamp.\r"
      },
      "getStatus()": {
        "notice": "A getter function for contract's status.\r"
      },
      "getTokenPrice()": {
        "notice": "A getter function for the price of the token.\r"
      },
      "getTokensMaxCap()": {
        "notice": "A getter function for the maximum cap of the tokens.\r"
      },
      "getTokensMinCap()": {
        "notice": "A getter function for the minumum cap of the tokens.\r"
      },
      "getTokensSold()": {
        "notice": "A getter function for the number of tokens\r sold.\r"
      },
      "reallocateTokens()": {
        "notice": "Reallocates the remaining tokens and the raised\r ether (if the sale has completed successfully) back to admin.\r"
      },
      "redeemTokens()": {
        "notice": "Redeems sender's token when sale has completed.\r"
      },
      "refundTokens()": {
        "notice": "Refunds sender's tokens when sale has failed.\r"
      },
      "transferOwnership(address)": {
        "notice": "Transfers the ownership of the contract.\r"
      }
    }
  }
}