{
  "contractName": "PrivateSale",
  "abi": [
    {
      "constant": false,
      "inputs": [],
      "name": "activate",
      "outputs": [
        {
          "name": "",
          "type": "bool"
        }
      ],
      "payable": false,
      "stateMutability": "nonpayable",
      "type": "function"
    },
    {
      "constant": true,
      "inputs": [],
      "name": "getStartTimestamp",
      "outputs": [
        {
          "name": "",
          "type": "uint256"
        }
      ],
      "payable": false,
      "stateMutability": "view",
      "type": "function"
    },
    {
      "constant": true,
      "inputs": [],
      "name": "getRedeemableAfterTimestamp",
      "outputs": [
        {
          "name": "",
          "type": "uint256"
        }
      ],
      "payable": false,
      "stateMutability": "view",
      "type": "function"
    },
    {
      "constant": true,
      "inputs": [],
      "name": "getTokensMaxCap",
      "outputs": [
        {
          "name": "",
          "type": "uint256"
        }
      ],
      "payable": false,
      "stateMutability": "view",
      "type": "function"
    },
    {
      "constant": true,
      "inputs": [],
      "name": "getTokenPrice",
      "outputs": [
        {
          "name": "",
          "type": "uint256"
        }
      ],
      "payable": false,
      "stateMutability": "view",
      "type": "function"
    },
    {
      "constant": true,
      "inputs": [],
      "name": "getStatus",
      "outputs": [
        {
          "name": "",
          "type": "uint8"
        }
      ],
      "payable": false,
      "stateMutability": "view",
      "type": "function"
    },
    {
      "constant": true,
      "inputs": [],
      "name": "getTokensMinCap",
      "outputs": [
        {
          "name": "",
          "type": "uint256"
        }
      ],
      "payable": false,
      "stateMutability": "view",
      "type": "function"
    },
    {
      "constant": false,
      "inputs": [],
      "name": "deactivate",
      "outputs": [
        {
          "name": "",
          "type": "bool"
        }
      ],
      "payable": false,
      "stateMutability": "nonpayable",
      "type": "function"
    },
    {
      "constant": false,
      "inputs": [],
      "name": "refundTokens",
      "outputs": [
        {
          "name": "",
          "type": "bool"
        }
      ],
      "payable": false,
      "stateMutability": "nonpayable",
      "type": "function"
    },
    {
      "constant": true,
      "inputs": [],
      "name": "getEndTimestamp",
      "outputs": [
        {
          "name": "",
          "type": "uint256"
        }
      ],
      "payable": false,
      "stateMutability": "view",
      "type": "function"
    },
    {
      "constant": true,
      "inputs": [],
      "name": "getOwner",
      "outputs": [
        {
          "name": "",
          "type": "address"
        }
      ],
      "payable": false,
      "stateMutability": "view",
      "type": "function"
    },
    {
      "constant": true,
      "inputs": [
        {
          "name": "buyer",
          "type": "address"
        }
      ],
      "name": "getBalanceOf",
      "outputs": [
        {
          "name": "",
          "type": "uint256"
        }
      ],
      "payable": false,
      "stateMutability": "view",
      "type": "function"
    },
    {
      "constant": false,
      "inputs": [],
      "name": "reallocateTokens",
      "outputs": [
        {
          "name": "",
          "type": "bool"
        }
      ],
      "payable": false,
      "stateMutability": "nonpayable",
      "type": "function"
    },
    {
      "constant": false,
      "inputs": [],
      "name": "redeemTokens",
      "outputs": [
        {
          "name": "",
          "type": "bool"
        }
      ],
      "payable": false,
      "stateMutability": "nonpayable",
      "type": "function"
    },
    {
      "constant": true,
      "inputs": [],
      "name": "getTokensSold",
      "outputs": [
        {
          "name": "",
          "type": "uint256"
        }
      ],
      "payable": false,
      "stateMutability": "view",
      "type": "function"
    },
    {
      "inputs": [
        {
          "name": "token",
          "type": "address"
        },
        {
          "name": "price",
          "type": "uint256"
        },
        {
          "name": "minCap",
          "type": "uint256"
        },
        {
          "name": "maxCap",
          "type": "uint256"
        },
        {
          "name": "start",
          "type": "uint256"
        },
        {
          "name": "end",
          "type": "uint256"
        },
        {
          "name": "redeemableAfter",
          "type": "uint256"
        }
      ],
      "payable": false,
      "stateMutability": "nonpayable",
      "type": "constructor"
    },
    {
      "anonymous": false,
      "inputs": [
        {
          "indexed": true,
          "name": "from",
          "type": "address"
        },
        {
          "indexed": false,
          "name": "numberOfTokens",
          "type": "uint256"
        }
      ],
      "name": "Sold",
      "type": "event"
    },
    {
      "anonymous": false,
      "inputs": [
        {
          "indexed": true,
          "name": "from",
          "type": "address"
        },
        {
          "indexed": false,
          "name": "numberOfTokens",
          "type": "uint256"
        }
      ],
      "name": "Refunded",
      "type": "event"
    },
    {
      "anonymous": false,
      "inputs": [
        {
          "indexed": true,
          "name": "from",
          "type": "address"
        },
        {
          "indexed": false,
          "name": "numberOfTokens",
          "type": "uint256"
        }
      ],
      "name": "Redeemed",
      "type": "event"
    },
    {
      "anonymous": false,
      "inputs": [
        {
          "indexed": true,
          "name": "from",
          "type": "address"
        },
        {
          "indexed": false,
          "name": "numberOfTokens",
          "type": "uint256"
        }
      ],
      "name": "Reallocated",
      "type": "event"
    },
    {
      "anonymous": false,
      "inputs": [
        {
          "indexed": true,
          "name": "blockNumber",
          "type": "uint256"
        }
      ],
      "name": "Activated",
      "type": "event"
    },
    {
      "anonymous": false,
      "inputs": [
        {
          "indexed": true,
          "name": "blockNumber",
          "type": "uint256"
        }
      ],
      "name": "Deactivated",
      "type": "event"
    },
    {
      "constant": true,
      "inputs": [
        {
          "name": "buyer",
          "type": "address"
        }
      ],
      "name": "getAddressAllowance",
      "outputs": [
        {
          "name": "",
          "type": "bool"
        }
      ],
      "payable": false,
      "stateMutability": "view",
      "type": "function"
    },
    {
      "constant": false,
      "inputs": [
        {
          "name": "buyer",
          "type": "address"
        }
      ],
      "name": "allowAddress",
      "outputs": [],
      "payable": false,
      "stateMutability": "nonpayable",
      "type": "function"
    },
    {
      "constant": false,
      "inputs": [
        {
          "name": "numberOfTokens",
          "type": "uint256"
        }
      ],
      "name": "buyTokens",
      "outputs": [
        {
          "name": "",
          "type": "bool"
        }
      ],
      "payable": true,
      "stateMutability": "payable",
      "type": "function"
    }
  ],
  "bytecode": "0x608060405234801561001057600080fd5b5060405160e080611368833981018060405260e081101561003057600080fd5b810190808051906020019092919080519060200190929190805190602001909291908051906020019092919080519060200190929190805190602001909291908051906020019092919050505086868686868686600073ffffffffffffffffffffffffffffffffffffffff168773ffffffffffffffffffffffffffffffffffffffff1614156100be57600080fd5b6000861180156100ce5750600085115b80156100da5750600084115b6100e357600080fd5b8484116100ef57600080fd5b33600060016101000a81548173ffffffffffffffffffffffffffffffffffffffff021916908373ffffffffffffffffffffffffffffffffffffffff16021790555086600160006101000a81548173ffffffffffffffffffffffffffffffffffffffff021916908373ffffffffffffffffffffffffffffffffffffffff160217905550856002819055508460038190555083600481905550826006819055508160078190555080600881905550600060058190555060008060006101000a81548160ff021916908360018111156101c157fe5b02179055505050505050505050505050505050611185806101e36000396000f3fe608060405260043610610126576000357c01000000000000000000000000000000000000000000000000000000009004806351b42b00116100b25780639b96eece116100815780639b96eece146103e1578063b35e59c814610446578063cf46115714610475578063e9a9c50c146104de578063ee7c0db01461050d57610126565b806351b42b0014610301578063710075091461033057806374e94deb1461035f578063893d20e81461038a57610126565b80633610724e116100f95780633610724e14610201578063486ddec3146102475780634b94f50e146102725780634e69d5601461029d578063513de7a8146102d657610126565b806308af4d881461012b5780630f15f4c01461017c5780631f89f25e146101ab57806323c44583146101d6575b600080fd5b34801561013757600080fd5b5061017a6004803603602081101561014e57600080fd5b81019080803573ffffffffffffffffffffffffffffffffffffffff169060200190929190505050610538565b005b34801561018857600080fd5b5061019161061e565b604051808215151515815260200191505060405180910390f35b3480156101b757600080fd5b506101c06106d0565b6040518082815260200191505060405180910390f35b3480156101e257600080fd5b506101eb6106da565b6040518082815260200191505060405180910390f35b61022d6004803603602081101561021757600080fd5b81019080803590602001909291905050506106e4565b604051808215151515815260200191505060405180910390f35b34801561025357600080fd5b5061025c61074b565b6040518082815260200191505060405180910390f35b34801561027e57600080fd5b50610287610755565b6040518082815260200191505060405180910390f35b3480156102a957600080fd5b506102b261075f565b604051808260018111156102c257fe5b60ff16815260200191505060405180910390f35b3480156102e257600080fd5b506102eb610775565b6040518082815260200191505060405180910390f35b34801561030d57600080fd5b5061031661077f565b604051808215151515815260200191505060405180910390f35b34801561033c57600080fd5b50610345610831565b604051808215151515815260200191505060405180910390f35b34801561036b57600080fd5b506103746109f7565b6040518082815260200191505060405180910390f35b34801561039657600080fd5b5061039f610a01565b604051808273ffffffffffffffffffffffffffffffffffffffff1673ffffffffffffffffffffffffffffffffffffffff16815260200191505060405180910390f35b3480156103ed57600080fd5b506104306004803603602081101561040457600080fd5b81019080803573ffffffffffffffffffffffffffffffffffffffff169060200190929190505050610a2a565b6040518082815260200191505060405180910390f35b34801561045257600080fd5b5061045b610a73565b604051808215151515815260200191505060405180910390f35b34801561048157600080fd5b506104c46004803603602081101561049857600080fd5b81019080803573ffffffffffffffffffffffffffffffffffffffff169060200190929190505050610d40565b604051808215151515815260200191505060405180910390f35b3480156104ea57600080fd5b506104f3610d96565b604051808215151515815260200191505060405180910390f35b34801561051957600080fd5b50610522611029565b6040518082815260200191505060405180910390f35b6000600181111561054557fe5b6000809054906101000a900460ff16600181111561055f57fe5b1461056957600080fd5b600060019054906101000a900473ffffffffffffffffffffffffffffffffffffffff1673ffffffffffffffffffffffffffffffffffffffff163373ffffffffffffffffffffffffffffffffffffffff16146105c357600080fd5b6001600a60008373ffffffffffffffffffffffffffffffffffffffff1673ffffffffffffffffffffffffffffffffffffffff16815260200190815260200160002060006101000a81548160ff02191690831515021790555050565b60008060019054906101000a900473ffffffffffffffffffffffffffffffffffffffff1673ffffffffffffffffffffffffffffffffffffffff163373ffffffffffffffffffffffffffffffffffffffff161461067957600080fd5b60008060006101000a81548160ff0219169083600181111561069757fe5b0217905550437f3ec796be1be7d03bff3a62b9fa594a60e947c1809bced06d929f145308ae57ce60405160405180910390a26001905090565b6000600654905090565b6000600854905090565b6000600a60003373ffffffffffffffffffffffffffffffffffffffff1673ffffffffffffffffffffffffffffffffffffffff16815260200190815260200160002060009054906101000a900460ff1661073c57600080fd5b61074582611033565b50919050565b6000600454905090565b6000600254905090565b60008060009054906101000a900460ff16905090565b6000600354905090565b60008060019054906101000a900473ffffffffffffffffffffffffffffffffffffffff1673ffffffffffffffffffffffffffffffffffffffff163373ffffffffffffffffffffffffffffffffffffffff16146107da57600080fd5b60016000806101000a81548160ff021916908360018111156107f857fe5b0217905550437fed48e4e899b34abded07dd8f092a22585a3fdec7db6b83f3927af165bf04cb1e60405160405180910390a26001905090565b600080600181111561083f57fe5b6000809054906101000a900460ff16600181111561085957fe5b1461086357600080fd5b600754421161087157600080fd5b6003546005541061088157600080fd5b6000600960003373ffffffffffffffffffffffffffffffffffffffff1673ffffffffffffffffffffffffffffffffffffffff16815260200190815260200160002054116108cd57600080fd5b6000600960003373ffffffffffffffffffffffffffffffffffffffff1673ffffffffffffffffffffffffffffffffffffffff1681526020019081526020016000205490506000600960003373ffffffffffffffffffffffffffffffffffffffff1673ffffffffffffffffffffffffffffffffffffffff168152602001908152602001600020819055503373ffffffffffffffffffffffffffffffffffffffff166108fc60025483029081150290604051600060405180830381858888f193505050501580156109a0573d6000803e3d6000fd5b503373ffffffffffffffffffffffffffffffffffffffff167fd7dee2702d63ad89917b6a4da9981c90c4d24f8c2bdfd64c604ecae57d8d0651826040518082815260200191505060405180910390a2600191505090565b6000600754905090565b60008060019054906101000a900473ffffffffffffffffffffffffffffffffffffffff16905090565b6000600960008373ffffffffffffffffffffffffffffffffffffffff1673ffffffffffffffffffffffffffffffffffffffff168152602001908152602001600020549050919050565b6000806001811115610a8157fe5b6000809054906101000a900460ff166001811115610a9b57fe5b14610aa557600080fd5b6007544211610ab357600080fd5b600060019054906101000a900473ffffffffffffffffffffffffffffffffffffffff1673ffffffffffffffffffffffffffffffffffffffff163373ffffffffffffffffffffffffffffffffffffffff1614610b0d57600080fd5b600060035460055410610b9757600554600454039050600060019054906101000a900473ffffffffffffffffffffffffffffffffffffffff1673ffffffffffffffffffffffffffffffffffffffff166108fc600254600554029081150290604051600060405180830381858888f19350505050158015610b91573d6000803e3d6000fd5b50610b9d565b60045490505b600160009054906101000a900473ffffffffffffffffffffffffffffffffffffffff1673ffffffffffffffffffffffffffffffffffffffff1663a9059cbb600060019054906101000a900473ffffffffffffffffffffffffffffffffffffffff16836040518363ffffffff167c0100000000000000000000000000000000000000000000000000000000028152600401808373ffffffffffffffffffffffffffffffffffffffff1673ffffffffffffffffffffffffffffffffffffffff16815260200182815260200192505050602060405180830381600087803b158015610c8457600080fd5b505af1158015610c98573d6000803e3d6000fd5b505050506040513d6020811015610cae57600080fd5b8101908080519060200190929190505050610cc857600080fd5b600060019054906101000a900473ffffffffffffffffffffffffffffffffffffffff1673ffffffffffffffffffffffffffffffffffffffff167fee9316440d6e2f8b6f1392efbb896bf3feb2161a7b417a2c0e28ab6f43dbbc09826040518082815260200191505060405180910390a2600191505090565b6000600a60008373ffffffffffffffffffffffffffffffffffffffff1673ffffffffffffffffffffffffffffffffffffffff16815260200190815260200160002060009054906101000a900460ff169050919050565b6000806001811115610da457fe5b6000809054906101000a900460ff166001811115610dbe57fe5b14610dc857600080fd5b6007544211610dd657600080fd5b6008544211610de457600080fd5b6003546005541015610df557600080fd5b6000600960003373ffffffffffffffffffffffffffffffffffffffff1673ffffffffffffffffffffffffffffffffffffffff1681526020019081526020016000205411610e4157600080fd5b6000600960003373ffffffffffffffffffffffffffffffffffffffff1673ffffffffffffffffffffffffffffffffffffffff1681526020019081526020016000205490506000600960003373ffffffffffffffffffffffffffffffffffffffff1673ffffffffffffffffffffffffffffffffffffffff16815260200190815260200160002081905550600160009054906101000a900473ffffffffffffffffffffffffffffffffffffffff1673ffffffffffffffffffffffffffffffffffffffff1663a9059cbb33836040518363ffffffff167c0100000000000000000000000000000000000000000000000000000000028152600401808373ffffffffffffffffffffffffffffffffffffffff1673ffffffffffffffffffffffffffffffffffffffff16815260200182815260200192505050602060405180830381600087803b158015610f8f57600080fd5b505af1158015610fa3573d6000803e3d6000fd5b505050506040513d6020811015610fb957600080fd5b8101908080519060200190929190505050610fd357600080fd5b3373ffffffffffffffffffffffffffffffffffffffff167f4896181ff8f4543cc00db9fe9b6fb7e6f032b7eb772c72ab1ec1b4d2e03b9369826040518082815260200191505060405180910390a2600191505090565b6000600554905090565b600080600181111561104157fe5b6000809054906101000a900460ff16600181111561105b57fe5b1461106557600080fd5b600654421015801561107957506007544211155b61108257600080fd5b8160055460045403101561109557600080fd5b600254820234146110a557600080fd5b8160056000828254019250508190555081600960003373ffffffffffffffffffffffffffffffffffffffff1673ffffffffffffffffffffffffffffffffffffffff168152602001908152602001600020600082825401925050819055503373ffffffffffffffffffffffffffffffffffffffff167fae92ab4b6f8f401ead768d3273e6bb937a13e39827d19c6376e8fd4512a05d9a836040518082815260200191505060405180910390a26001905091905056fea165627a7a723058208d264652e931e3c12db994e085af6e1bf14b29b52397b66e4c0a8796b56afa300029",
  "source": "pragma solidity ^0.5.7;\r\n\r\n/// Contracts.\r\nimport \"./Sale.sol\";\r\n\r\ncontract PrivateSale is Sale {\r\n\r\n    mapping(address => bool) private allowedAddresses;\r\n\r\n    /// Modifiers.\r\n\r\n    /// Verifies that the sender is allowed to\r\n    /// participate in the private sale.\r\n    modifier isAllowed() {\r\n        require(allowedAddresses[msg.sender]);\r\n        _;\r\n    }\r\n\r\n    constructor(\r\n        address token,\r\n        uint256 price,\r\n        uint256 minCap,\r\n        uint256 maxCap,\r\n        uint256 start,\r\n        uint256 end,\r\n        uint256 redeemableAfter)\r\n        Sale(\r\n            token,\r\n            price,\r\n            minCap,\r\n            maxCap,\r\n            start,\r\n            end,\r\n            redeemableAfter)\r\n        public\r\n    {\r\n        \r\n    }\r\n\r\n    /**\r\n      * @notice A getter function for the allowance of an address in the\r\n      * private sale.\r\n      * @param buyer The address to be checked.\r\n      * @return A boolean indicating if the given address is allowed to\r\n      * buy or not.\r\n      */\r\n    function getAddressAllowance(address buyer) public view returns(bool) {\r\n        return allowedAddresses[buyer];\r\n    }\r\n\r\n    /**\r\n      * @notice Allows the given address to participate to the\r\n      * private sale.\r\n      * @param buyer The address to be allowed.\r\n      */\r\n    function allowAddress(address buyer) public isActivated() onlyOwner() {\r\n        allowedAddresses[buyer] = true;\r\n    }\r\n\r\n    /**\r\n      * @notice Overrides the base 'buyTokens' function and uses the 'isAllowed'\r\n      * modifier.\r\n      * @param numberOfTokens The number of tokens the sender wants to buy.\r\n      * @return A boolean value indicating if the purchase has completed successfully.\r\n      */\r\n    function buyTokens(uint256 numberOfTokens) public payable isAllowed() returns(bool) {\r\n        super.buyTokens(numberOfTokens);\r\n    }\r\n\r\n}",
  "sourcePath": "/home/gkamtzir/thesis/Ethereum-ICO-Diploma-Thesis/contracts/PrivateSale.sol",
  "compiler": {
    "name": "solc",
    "version": "0.5.7+commit.6da8b019.Emscripten.clang"
  },
  "schemaVersion": "3.0.2",
  "updatedAt": "2019-05-05T13:36:18.634Z",
  "devdoc": {
    "methods": {
      "activate()": {
        "return": "A boolean indicating if the activation has completed\r successfully.\r"
      },
      "allowAddress(address)": {
        "params": {
          "buyer": "The address to be allowed.\r"
        }
      },
      "buyTokens(uint256)": {
        "params": {
          "numberOfTokens": "The number of tokens the sender wants to buy.\r"
        },
        "return": "A boolean value indicating if the purchase has completed successfully.\r"
      },
      "deactivate()": {
        "return": "A boolean indicating if the deactivation has completed\r successfully.\r"
      },
      "getAddressAllowance(address)": {
        "params": {
          "buyer": "The address to be checked.\r"
        },
        "return": "A boolean indicating if the given address is allowed to\r buy or not.\r"
      },
      "getBalanceOf(address)": {
        "return": "The number of tokes bought by the given address.\r"
      },
      "getEndTimestamp()": {
        "return": "The timestamp when the sale will end.\r"
      },
      "getOwner()": {
        "return": "The address of the owner of the private sale.\r"
      },
      "getRedeemableAfterTimestamp()": {
        "return": "The timestamp when the tokens will be redeemable.\r"
      },
      "getStartTimestamp()": {
        "return": "The timestamp when the sale will begin.\r"
      },
      "getStatus()": {
        "return": "The current status of the contract.\r"
      },
      "getTokenPrice()": {
        "return": "The price of the token.\r"
      },
      "getTokensMaxCap()": {
        "return": "The maximum cap of the tokens.\r"
      },
      "getTokensMinCap()": {
        "return": "The minimum cap of the tokens.\r"
      },
      "getTokensSold()": {
        "return": "The number of tokens sold.\r"
      },
      "reallocateTokens()": {
        "return": "A boolean indicating if the reallocation has completed successfully.\r"
      },
      "redeemTokens()": {
        "return": "A boolean value indicating if the retrieval of\r the tokens has completed successfully.\r"
      },
      "refundTokens()": {
        "return": "A boolean value indicating if the refund has completed successfully.\r"
      }
    }
  },
  "userdoc": {
    "methods": {
      "activate()": {
        "notice": "Activates the contract.\r"
      },
      "allowAddress(address)": {
        "notice": "Allows the given address to participate to the\r private sale.\r"
      },
      "buyTokens(uint256)": {
        "notice": "Overrides the base 'buyTokens' function and uses the 'isAllowed'\r modifier.\r"
      },
      "deactivate()": {
        "notice": "Deactivates the contract.\r"
      },
      "getAddressAllowance(address)": {
        "notice": "A getter function for the allowance of an address in the\r private sale.\r"
      },
      "getBalanceOf(address)": {
        "notice": "A getter function for the current balance of an address.\r"
      },
      "getEndTimestamp()": {
        "notice": "A getter function for sale's ending timestamp.\r"
      },
      "getOwner()": {
        "notice": "A getter function for the owner of the private\r sale.\r"
      },
      "getRedeemableAfterTimestamp()": {
        "notice": "A getter function for timestamp after which the\r tokens will be redeemamble.\r"
      },
      "getStartTimestamp()": {
        "notice": "A getter function for sale's starting timestamp.\r"
      },
      "getStatus()": {
        "notice": "A getter function for contract's status.\r"
      },
      "getTokenPrice()": {
        "notice": "A getter function for the price of the token.\r"
      },
      "getTokensMaxCap()": {
        "notice": "A getter function for the maximum cap of the tokens.\r"
      },
      "getTokensMinCap()": {
        "notice": "A getter function for the minumum cap of the tokens.\r"
      },
      "getTokensSold()": {
        "notice": "A getter function for the number of tokens\r sold.\r"
      },
      "reallocateTokens()": {
        "notice": "Reallocates the remaining tokens and the raised\r ether (if the sale has completed successfully) back to admin.\r"
      },
      "redeemTokens()": {
        "notice": "Redeems sender's token when sale has completed.\r"
      },
      "refundTokens()": {
        "notice": "Refunds sender's tokens when sale has failed.\r"
      }
    }
  }
}