{
  "contractName": "PrivateSale",
  "abi": [
    {
      "constant": false,
      "inputs": [],
      "name": "activate",
      "outputs": [
        {
          "name": "",
          "type": "bool"
        }
      ],
      "payable": false,
      "stateMutability": "nonpayable",
      "type": "function",
      "signature": "0x0f15f4c0"
    },
    {
      "constant": true,
      "inputs": [],
      "name": "getStartTimestamp",
      "outputs": [
        {
          "name": "",
          "type": "uint256"
        }
      ],
      "payable": false,
      "stateMutability": "view",
      "type": "function",
      "signature": "0x1f89f25e"
    },
    {
      "constant": true,
      "inputs": [],
      "name": "getRedeemableAfterTimestamp",
      "outputs": [
        {
          "name": "",
          "type": "uint256"
        }
      ],
      "payable": false,
      "stateMutability": "view",
      "type": "function",
      "signature": "0x23c44583"
    },
    {
      "constant": true,
      "inputs": [],
      "name": "getTokensMaxCap",
      "outputs": [
        {
          "name": "",
          "type": "uint256"
        }
      ],
      "payable": false,
      "stateMutability": "view",
      "type": "function",
      "signature": "0x486ddec3"
    },
    {
      "constant": true,
      "inputs": [],
      "name": "getTokenPrice",
      "outputs": [
        {
          "name": "",
          "type": "uint256"
        }
      ],
      "payable": false,
      "stateMutability": "view",
      "type": "function",
      "signature": "0x4b94f50e"
    },
    {
      "constant": true,
      "inputs": [],
      "name": "getStatus",
      "outputs": [
        {
          "name": "",
          "type": "uint8"
        }
      ],
      "payable": false,
      "stateMutability": "view",
      "type": "function",
      "signature": "0x4e69d560"
    },
    {
      "constant": true,
      "inputs": [],
      "name": "getTokensMinCap",
      "outputs": [
        {
          "name": "",
          "type": "uint256"
        }
      ],
      "payable": false,
      "stateMutability": "view",
      "type": "function",
      "signature": "0x513de7a8"
    },
    {
      "constant": false,
      "inputs": [],
      "name": "deactivate",
      "outputs": [
        {
          "name": "",
          "type": "bool"
        }
      ],
      "payable": false,
      "stateMutability": "nonpayable",
      "type": "function",
      "signature": "0x51b42b00"
    },
    {
      "constant": false,
      "inputs": [],
      "name": "refundTokens",
      "outputs": [
        {
          "name": "",
          "type": "bool"
        }
      ],
      "payable": false,
      "stateMutability": "nonpayable",
      "type": "function",
      "signature": "0x71007509"
    },
    {
      "constant": true,
      "inputs": [],
      "name": "getEndTimestamp",
      "outputs": [
        {
          "name": "",
          "type": "uint256"
        }
      ],
      "payable": false,
      "stateMutability": "view",
      "type": "function",
      "signature": "0x74e94deb"
    },
    {
      "constant": true,
      "inputs": [],
      "name": "getOwner",
      "outputs": [
        {
          "name": "",
          "type": "address"
        }
      ],
      "payable": false,
      "stateMutability": "view",
      "type": "function",
      "signature": "0x893d20e8"
    },
    {
      "constant": true,
      "inputs": [
        {
          "name": "buyer",
          "type": "address"
        }
      ],
      "name": "getBalanceOf",
      "outputs": [
        {
          "name": "",
          "type": "uint256"
        }
      ],
      "payable": false,
      "stateMutability": "view",
      "type": "function",
      "signature": "0x9b96eece"
    },
    {
      "constant": false,
      "inputs": [],
      "name": "reallocateTokens",
      "outputs": [
        {
          "name": "",
          "type": "bool"
        }
      ],
      "payable": false,
      "stateMutability": "nonpayable",
      "type": "function",
      "signature": "0xb35e59c8"
    },
    {
      "constant": false,
      "inputs": [],
      "name": "redeemTokens",
      "outputs": [
        {
          "name": "",
          "type": "bool"
        }
      ],
      "payable": false,
      "stateMutability": "nonpayable",
      "type": "function",
      "signature": "0xe9a9c50c"
    },
    {
      "constant": true,
      "inputs": [],
      "name": "getTokensSold",
      "outputs": [
        {
          "name": "",
          "type": "uint256"
        }
      ],
      "payable": false,
      "stateMutability": "view",
      "type": "function",
      "signature": "0xee7c0db0"
    },
    {
      "constant": false,
      "inputs": [
        {
          "name": "newOwner",
          "type": "address"
        }
      ],
      "name": "transferOwnership",
      "outputs": [
        {
          "name": "",
          "type": "bool"
        }
      ],
      "payable": false,
      "stateMutability": "nonpayable",
      "type": "function",
      "signature": "0xf2fde38b"
    },
    {
      "inputs": [
        {
          "name": "token",
          "type": "address"
        },
        {
          "name": "price",
          "type": "uint256"
        },
        {
          "name": "minCap",
          "type": "uint256"
        },
        {
          "name": "maxCap",
          "type": "uint256"
        },
        {
          "name": "start",
          "type": "uint256"
        },
        {
          "name": "end",
          "type": "uint256"
        },
        {
          "name": "redeemableAfter",
          "type": "uint256"
        }
      ],
      "payable": false,
      "stateMutability": "nonpayable",
      "type": "constructor",
      "signature": "constructor"
    },
    {
      "anonymous": false,
      "inputs": [
        {
          "indexed": true,
          "name": "from",
          "type": "address"
        },
        {
          "indexed": false,
          "name": "numberOfTokens",
          "type": "uint256"
        }
      ],
      "name": "Sold",
      "type": "event",
      "signature": "0xae92ab4b6f8f401ead768d3273e6bb937a13e39827d19c6376e8fd4512a05d9a"
    },
    {
      "anonymous": false,
      "inputs": [
        {
          "indexed": true,
          "name": "from",
          "type": "address"
        },
        {
          "indexed": false,
          "name": "numberOfTokens",
          "type": "uint256"
        }
      ],
      "name": "Refunded",
      "type": "event",
      "signature": "0xd7dee2702d63ad89917b6a4da9981c90c4d24f8c2bdfd64c604ecae57d8d0651"
    },
    {
      "anonymous": false,
      "inputs": [
        {
          "indexed": true,
          "name": "from",
          "type": "address"
        },
        {
          "indexed": false,
          "name": "numberOfTokens",
          "type": "uint256"
        }
      ],
      "name": "Redeemed",
      "type": "event",
      "signature": "0x4896181ff8f4543cc00db9fe9b6fb7e6f032b7eb772c72ab1ec1b4d2e03b9369"
    },
    {
      "anonymous": false,
      "inputs": [
        {
          "indexed": true,
          "name": "from",
          "type": "address"
        },
        {
          "indexed": false,
          "name": "numberOfTokens",
          "type": "uint256"
        }
      ],
      "name": "Reallocated",
      "type": "event",
      "signature": "0xee9316440d6e2f8b6f1392efbb896bf3feb2161a7b417a2c0e28ab6f43dbbc09"
    },
    {
      "anonymous": false,
      "inputs": [
        {
          "indexed": true,
          "name": "from",
          "type": "address"
        },
        {
          "indexed": true,
          "name": "to",
          "type": "address"
        }
      ],
      "name": "OwnershipTransfered",
      "type": "event",
      "signature": "0x0d18b5fd22306e373229b9439188228edca81207d1667f604daf6cef8aa3ee67"
    },
    {
      "anonymous": false,
      "inputs": [
        {
          "indexed": true,
          "name": "blockNumber",
          "type": "uint256"
        }
      ],
      "name": "Activated",
      "type": "event",
      "signature": "0x3ec796be1be7d03bff3a62b9fa594a60e947c1809bced06d929f145308ae57ce"
    },
    {
      "anonymous": false,
      "inputs": [
        {
          "indexed": true,
          "name": "blockNumber",
          "type": "uint256"
        }
      ],
      "name": "Deactivated",
      "type": "event",
      "signature": "0xed48e4e899b34abded07dd8f092a22585a3fdec7db6b83f3927af165bf04cb1e"
    },
    {
      "constant": true,
      "inputs": [
        {
          "name": "buyer",
          "type": "address"
        }
      ],
      "name": "getAddressAllowance",
      "outputs": [
        {
          "name": "",
          "type": "bool"
        }
      ],
      "payable": false,
      "stateMutability": "view",
      "type": "function",
      "signature": "0xcf461157"
    },
    {
      "constant": false,
      "inputs": [
        {
          "name": "buyer",
          "type": "address"
        }
      ],
      "name": "allowAddress",
      "outputs": [],
      "payable": false,
      "stateMutability": "nonpayable",
      "type": "function",
      "signature": "0x08af4d88"
    },
    {
      "constant": false,
      "inputs": [
        {
          "name": "numberOfTokens",
          "type": "uint256"
        }
      ],
      "name": "buyTokens",
      "outputs": [
        {
          "name": "",
          "type": "bool"
        }
      ],
      "payable": true,
      "stateMutability": "payable",
      "type": "function",
      "signature": "0x3610724e"
    }
  ],
  "bytecode": "0x608060405234801561001057600080fd5b5060405160e0806114db833981018060405260e081101561003057600080fd5b810190808051906020019092919080519060200190929190805190602001909291908051906020019092919080519060200190929190805190602001909291908051906020019092919050505086868686868686600073ffffffffffffffffffffffffffffffffffffffff168773ffffffffffffffffffffffffffffffffffffffff1614156100be57600080fd5b6000861180156100ce5750600085115b80156100da5750600084115b6100e357600080fd5b8484116100ef57600080fd5b33600060016101000a81548173ffffffffffffffffffffffffffffffffffffffff021916908373ffffffffffffffffffffffffffffffffffffffff16021790555086600160006101000a81548173ffffffffffffffffffffffffffffffffffffffff021916908373ffffffffffffffffffffffffffffffffffffffff160217905550856002819055508460038190555083600481905550826006819055508160078190555080600881905550600060058190555060008060006101000a81548160ff021916908360018111156101c157fe5b021790555050505050505050505050505050506112f8806101e36000396000f3fe608060405260043610610131576000357c01000000000000000000000000000000000000000000000000000000009004806351b42b00116100bd578063b35e59c811610081578063b35e59c814610451578063cf46115714610480578063e9a9c50c146104e9578063ee7c0db014610518578063f2fde38b1461054357610131565b806351b42b001461030c578063710075091461033b57806374e94deb1461036a578063893d20e8146103955780639b96eece146103ec57610131565b80633610724e116101045780633610724e1461020c578063486ddec3146102525780634b94f50e1461027d5780634e69d560146102a8578063513de7a8146102e157610131565b806308af4d88146101365780630f15f4c0146101875780631f89f25e146101b657806323c44583146101e1575b600080fd5b34801561014257600080fd5b506101856004803603602081101561015957600080fd5b81019080803573ffffffffffffffffffffffffffffffffffffffff1690602001909291905050506105ac565b005b34801561019357600080fd5b5061019c610692565b604051808215151515815260200191505060405180910390f35b3480156101c257600080fd5b506101cb610744565b6040518082815260200191505060405180910390f35b3480156101ed57600080fd5b506101f661074e565b6040518082815260200191505060405180910390f35b6102386004803603602081101561022257600080fd5b8101908080359060200190929190505050610758565b604051808215151515815260200191505060405180910390f35b34801561025e57600080fd5b506102676107bf565b6040518082815260200191505060405180910390f35b34801561028957600080fd5b506102926107c9565b6040518082815260200191505060405180910390f35b3480156102b457600080fd5b506102bd6107d3565b604051808260018111156102cd57fe5b60ff16815260200191505060405180910390f35b3480156102ed57600080fd5b506102f66107e9565b6040518082815260200191505060405180910390f35b34801561031857600080fd5b506103216107f3565b604051808215151515815260200191505060405180910390f35b34801561034757600080fd5b506103506108a5565b604051808215151515815260200191505060405180910390f35b34801561037657600080fd5b5061037f610a6b565b6040518082815260200191505060405180910390f35b3480156103a157600080fd5b506103aa610a75565b604051808273ffffffffffffffffffffffffffffffffffffffff1673ffffffffffffffffffffffffffffffffffffffff16815260200191505060405180910390f35b3480156103f857600080fd5b5061043b6004803603602081101561040f57600080fd5b81019080803573ffffffffffffffffffffffffffffffffffffffff169060200190929190505050610a9e565b6040518082815260200191505060405180910390f35b34801561045d57600080fd5b50610466610ae7565b604051808215151515815260200191505060405180910390f35b34801561048c57600080fd5b506104cf600480360360208110156104a357600080fd5b81019080803573ffffffffffffffffffffffffffffffffffffffff169060200190929190505050610db4565b604051808215151515815260200191505060405180910390f35b3480156104f557600080fd5b506104fe610e0a565b604051808215151515815260200191505060405180910390f35b34801561052457600080fd5b5061052d61109d565b6040518082815260200191505060405180910390f35b34801561054f57600080fd5b506105926004803603602081101561056657600080fd5b81019080803573ffffffffffffffffffffffffffffffffffffffff1690602001909291905050506110a7565b604051808215151515815260200191505060405180910390f35b600060018111156105b957fe5b6000809054906101000a900460ff1660018111156105d357fe5b146105dd57600080fd5b600060019054906101000a900473ffffffffffffffffffffffffffffffffffffffff1673ffffffffffffffffffffffffffffffffffffffff163373ffffffffffffffffffffffffffffffffffffffff161461063757600080fd5b6001600a60008373ffffffffffffffffffffffffffffffffffffffff1673ffffffffffffffffffffffffffffffffffffffff16815260200190815260200160002060006101000a81548160ff02191690831515021790555050565b60008060019054906101000a900473ffffffffffffffffffffffffffffffffffffffff1673ffffffffffffffffffffffffffffffffffffffff163373ffffffffffffffffffffffffffffffffffffffff16146106ed57600080fd5b60008060006101000a81548160ff0219169083600181111561070b57fe5b0217905550437f3ec796be1be7d03bff3a62b9fa594a60e947c1809bced06d929f145308ae57ce60405160405180910390a26001905090565b6000600654905090565b6000600854905090565b6000600a60003373ffffffffffffffffffffffffffffffffffffffff1673ffffffffffffffffffffffffffffffffffffffff16815260200190815260200160002060009054906101000a900460ff166107b057600080fd5b6107b9826111a6565b50919050565b6000600454905090565b6000600254905090565b60008060009054906101000a900460ff16905090565b6000600354905090565b60008060019054906101000a900473ffffffffffffffffffffffffffffffffffffffff1673ffffffffffffffffffffffffffffffffffffffff163373ffffffffffffffffffffffffffffffffffffffff161461084e57600080fd5b60016000806101000a81548160ff0219169083600181111561086c57fe5b0217905550437fed48e4e899b34abded07dd8f092a22585a3fdec7db6b83f3927af165bf04cb1e60405160405180910390a26001905090565b60008060018111156108b357fe5b6000809054906101000a900460ff1660018111156108cd57fe5b146108d757600080fd5b60075442116108e557600080fd5b600354600554106108f557600080fd5b6000600960003373ffffffffffffffffffffffffffffffffffffffff1673ffffffffffffffffffffffffffffffffffffffff168152602001908152602001600020541161094157600080fd5b6000600960003373ffffffffffffffffffffffffffffffffffffffff1673ffffffffffffffffffffffffffffffffffffffff1681526020019081526020016000205490506000600960003373ffffffffffffffffffffffffffffffffffffffff1673ffffffffffffffffffffffffffffffffffffffff168152602001908152602001600020819055503373ffffffffffffffffffffffffffffffffffffffff166108fc60025483029081150290604051600060405180830381858888f19350505050158015610a14573d6000803e3d6000fd5b503373ffffffffffffffffffffffffffffffffffffffff167fd7dee2702d63ad89917b6a4da9981c90c4d24f8c2bdfd64c604ecae57d8d0651826040518082815260200191505060405180910390a2600191505090565b6000600754905090565b60008060019054906101000a900473ffffffffffffffffffffffffffffffffffffffff16905090565b6000600960008373ffffffffffffffffffffffffffffffffffffffff1673ffffffffffffffffffffffffffffffffffffffff168152602001908152602001600020549050919050565b6000806001811115610af557fe5b6000809054906101000a900460ff166001811115610b0f57fe5b14610b1957600080fd5b6007544211610b2757600080fd5b600060019054906101000a900473ffffffffffffffffffffffffffffffffffffffff1673ffffffffffffffffffffffffffffffffffffffff163373ffffffffffffffffffffffffffffffffffffffff1614610b8157600080fd5b600060035460055410610c0b57600554600454039050600060019054906101000a900473ffffffffffffffffffffffffffffffffffffffff1673ffffffffffffffffffffffffffffffffffffffff166108fc600254600554029081150290604051600060405180830381858888f19350505050158015610c05573d6000803e3d6000fd5b50610c11565b60045490505b600160009054906101000a900473ffffffffffffffffffffffffffffffffffffffff1673ffffffffffffffffffffffffffffffffffffffff1663a9059cbb600060019054906101000a900473ffffffffffffffffffffffffffffffffffffffff16836040518363ffffffff167c0100000000000000000000000000000000000000000000000000000000028152600401808373ffffffffffffffffffffffffffffffffffffffff1673ffffffffffffffffffffffffffffffffffffffff16815260200182815260200192505050602060405180830381600087803b158015610cf857600080fd5b505af1158015610d0c573d6000803e3d6000fd5b505050506040513d6020811015610d2257600080fd5b8101908080519060200190929190505050610d3c57600080fd5b600060019054906101000a900473ffffffffffffffffffffffffffffffffffffffff1673ffffffffffffffffffffffffffffffffffffffff167fee9316440d6e2f8b6f1392efbb896bf3feb2161a7b417a2c0e28ab6f43dbbc09826040518082815260200191505060405180910390a2600191505090565b6000600a60008373ffffffffffffffffffffffffffffffffffffffff1673ffffffffffffffffffffffffffffffffffffffff16815260200190815260200160002060009054906101000a900460ff169050919050565b6000806001811115610e1857fe5b6000809054906101000a900460ff166001811115610e3257fe5b14610e3c57600080fd5b6007544211610e4a57600080fd5b6008544211610e5857600080fd5b6003546005541015610e6957600080fd5b6000600960003373ffffffffffffffffffffffffffffffffffffffff1673ffffffffffffffffffffffffffffffffffffffff1681526020019081526020016000205411610eb557600080fd5b6000600960003373ffffffffffffffffffffffffffffffffffffffff1673ffffffffffffffffffffffffffffffffffffffff1681526020019081526020016000205490506000600960003373ffffffffffffffffffffffffffffffffffffffff1673ffffffffffffffffffffffffffffffffffffffff16815260200190815260200160002081905550600160009054906101000a900473ffffffffffffffffffffffffffffffffffffffff1673ffffffffffffffffffffffffffffffffffffffff1663a9059cbb33836040518363ffffffff167c0100000000000000000000000000000000000000000000000000000000028152600401808373ffffffffffffffffffffffffffffffffffffffff1673ffffffffffffffffffffffffffffffffffffffff16815260200182815260200192505050602060405180830381600087803b15801561100357600080fd5b505af1158015611017573d6000803e3d6000fd5b505050506040513d602081101561102d57600080fd5b810190808051906020019092919050505061104757600080fd5b3373ffffffffffffffffffffffffffffffffffffffff167f4896181ff8f4543cc00db9fe9b6fb7e6f032b7eb772c72ab1ec1b4d2e03b9369826040518082815260200191505060405180910390a2600191505090565b6000600554905090565b60008060019054906101000a900473ffffffffffffffffffffffffffffffffffffffff1673ffffffffffffffffffffffffffffffffffffffff163373ffffffffffffffffffffffffffffffffffffffff161461110257600080fd5b81600060016101000a81548173ffffffffffffffffffffffffffffffffffffffff021916908373ffffffffffffffffffffffffffffffffffffffff1602179055508173ffffffffffffffffffffffffffffffffffffffff163373ffffffffffffffffffffffffffffffffffffffff167f0d18b5fd22306e373229b9439188228edca81207d1667f604daf6cef8aa3ee6760405160405180910390a360019050919050565b60008060018111156111b457fe5b6000809054906101000a900460ff1660018111156111ce57fe5b146111d857600080fd5b60065442101580156111ec57506007544211155b6111f557600080fd5b8160055460045403101561120857600080fd5b6002548202341461121857600080fd5b8160056000828254019250508190555081600960003373ffffffffffffffffffffffffffffffffffffffff1673ffffffffffffffffffffffffffffffffffffffff168152602001908152602001600020600082825401925050819055503373ffffffffffffffffffffffffffffffffffffffff167fae92ab4b6f8f401ead768d3273e6bb937a13e39827d19c6376e8fd4512a05d9a836040518082815260200191505060405180910390a26001905091905056fea165627a7a723058204e106191afdf72e88da4adca1d22c86e58b1d6741f1b45a115ff7b148e3e4f490029",
  "source": "pragma solidity ^0.5.7;\r\n\r\n/// Contracts.\r\nimport \"./Sale.sol\";\r\n\r\ncontract PrivateSale is Sale {\r\n\r\n    mapping(address => bool) private allowedAddresses;\r\n\r\n    /// Modifiers.\r\n\r\n    /// Verifies that the sender is allowed to\r\n    /// participate in the private sale.\r\n    modifier isAllowed() {\r\n        require(allowedAddresses[msg.sender]);\r\n        _;\r\n    }\r\n\r\n    constructor(\r\n        address token,\r\n        uint256 price,\r\n        uint256 minCap,\r\n        uint256 maxCap,\r\n        uint256 start,\r\n        uint256 end,\r\n        uint256 redeemableAfter)\r\n        Sale(\r\n            token,\r\n            price,\r\n            minCap,\r\n            maxCap,\r\n            start,\r\n            end,\r\n            redeemableAfter)\r\n        public\r\n    {\r\n        \r\n    }\r\n\r\n    /**\r\n      * @notice A getter function for the allowance of an address in the\r\n      * private sale.\r\n      * @param buyer The address to be checked.\r\n      * @return A boolean indicating if the given address is allowed to\r\n      * buy or not.\r\n      */\r\n    function getAddressAllowance(address buyer) public view returns(bool) {\r\n        return allowedAddresses[buyer];\r\n    }\r\n\r\n    /**\r\n      * @notice Allows the given address to participate to the\r\n      * private sale.\r\n      * @param buyer The address to be allowed.\r\n      */\r\n    function allowAddress(address buyer) public isActivated() onlyOwner() {\r\n        allowedAddresses[buyer] = true;\r\n    }\r\n\r\n    /**\r\n      * @notice Overrides the base 'buyTokens' function and uses the 'isAllowed'\r\n      * modifier.\r\n      * @param numberOfTokens The number of tokens the sender wants to buy.\r\n      * @return A boolean value indicating if the purchase has completed successfully.\r\n      */\r\n    function buyTokens(uint256 numberOfTokens) public payable isAllowed() returns(bool) {\r\n        super.buyTokens(numberOfTokens);\r\n    }\r\n\r\n}",
  "sourcePath": "/home/gkamtzir/thesis/Ethereum-ICO-Diploma-Thesis/contracts/PrivateSale.sol",
  "compiler": {
    "name": "solc",
    "version": "0.5.7+commit.6da8b019.Emscripten.clang"
  },
  "schemaVersion": "3.0.2",
  "updatedAt": "2019-05-09T15:14:47.545Z",
  "devdoc": {
    "methods": {
      "activate()": {
        "return": "A boolean indicating if the activation has completed\r successfully.\r"
      },
      "allowAddress(address)": {
        "params": {
          "buyer": "The address to be allowed.\r"
        }
      },
      "buyTokens(uint256)": {
        "params": {
          "numberOfTokens": "The number of tokens the sender wants to buy.\r"
        },
        "return": "A boolean value indicating if the purchase has completed successfully.\r"
      },
      "deactivate()": {
        "return": "A boolean indicating if the deactivation has completed\r successfully.\r"
      },
      "getAddressAllowance(address)": {
        "params": {
          "buyer": "The address to be checked.\r"
        },
        "return": "A boolean indicating if the given address is allowed to\r buy or not.\r"
      },
      "getBalanceOf(address)": {
        "return": "The number of tokes bought by the given address.\r"
      },
      "getEndTimestamp()": {
        "return": "The timestamp when the sale will end.\r"
      },
      "getOwner()": {
        "return": "The address of the owner of the private sale.\r"
      },
      "getRedeemableAfterTimestamp()": {
        "return": "The timestamp when the tokens will be redeemable.\r"
      },
      "getStartTimestamp()": {
        "return": "The timestamp when the sale will begin.\r"
      },
      "getStatus()": {
        "return": "The current status of the contract.\r"
      },
      "getTokenPrice()": {
        "return": "The price of the token.\r"
      },
      "getTokensMaxCap()": {
        "return": "The maximum cap of the tokens.\r"
      },
      "getTokensMinCap()": {
        "return": "The minimum cap of the tokens.\r"
      },
      "getTokensSold()": {
        "return": "The number of tokens sold.\r"
      },
      "reallocateTokens()": {
        "return": "A boolean indicating if the reallocation has completed successfully.\r"
      },
      "redeemTokens()": {
        "return": "A boolean value indicating if the retrieval of\r the tokens has completed successfully.\r"
      },
      "refundTokens()": {
        "return": "A boolean value indicating if the refund has completed successfully.\r"
      },
      "transferOwnership(address)": {
        "return": "A boolean value indicating if the transfer has completed successfully.\r"
      }
    }
  },
  "userdoc": {
    "methods": {
      "activate()": {
        "notice": "Activates the contract.\r"
      },
      "allowAddress(address)": {
        "notice": "Allows the given address to participate to the\r private sale.\r"
      },
      "buyTokens(uint256)": {
        "notice": "Overrides the base 'buyTokens' function and uses the 'isAllowed'\r modifier.\r"
      },
      "deactivate()": {
        "notice": "Deactivates the contract.\r"
      },
      "getAddressAllowance(address)": {
        "notice": "A getter function for the allowance of an address in the\r private sale.\r"
      },
      "getBalanceOf(address)": {
        "notice": "A getter function for the current balance of an address.\r"
      },
      "getEndTimestamp()": {
        "notice": "A getter function for sale's ending timestamp.\r"
      },
      "getOwner()": {
        "notice": "A getter function for the owner of the private\r sale.\r"
      },
      "getRedeemableAfterTimestamp()": {
        "notice": "A getter function for timestamp after which the\r tokens will be redeemamble.\r"
      },
      "getStartTimestamp()": {
        "notice": "A getter function for sale's starting timestamp.\r"
      },
      "getStatus()": {
        "notice": "A getter function for contract's status.\r"
      },
      "getTokenPrice()": {
        "notice": "A getter function for the price of the token.\r"
      },
      "getTokensMaxCap()": {
        "notice": "A getter function for the maximum cap of the tokens.\r"
      },
      "getTokensMinCap()": {
        "notice": "A getter function for the minumum cap of the tokens.\r"
      },
      "getTokensSold()": {
        "notice": "A getter function for the number of tokens\r sold.\r"
      },
      "reallocateTokens()": {
        "notice": "Reallocates the remaining tokens and the raised\r ether (if the sale has completed successfully) back to admin.\r"
      },
      "redeemTokens()": {
        "notice": "Redeems sender's token when sale has completed.\r"
      },
      "refundTokens()": {
        "notice": "Refunds sender's tokens when sale has failed.\r"
      },
      "transferOwnership(address)": {
        "notice": "Transfers the ownership of the contract.\r"
      }
    }
  }
}