{
  "contractName": "Sale",
  "abi": [
    {
      "constant": true,
      "inputs": [],
      "name": "getStatus",
      "outputs": [
        {
          "name": "",
          "type": "uint8"
        }
      ],
      "payable": false,
      "stateMutability": "view",
      "type": "function"
    },
    {
      "inputs": [
        {
          "name": "token",
          "type": "address"
        },
        {
          "name": "price",
          "type": "uint256"
        },
        {
          "name": "minCap",
          "type": "uint256"
        },
        {
          "name": "maxCap",
          "type": "uint256"
        },
        {
          "name": "start",
          "type": "uint256"
        },
        {
          "name": "end",
          "type": "uint256"
        },
        {
          "name": "redeemableAfter",
          "type": "uint256"
        }
      ],
      "payable": false,
      "stateMutability": "nonpayable",
      "type": "constructor"
    },
    {
      "anonymous": false,
      "inputs": [
        {
          "indexed": true,
          "name": "from",
          "type": "address"
        },
        {
          "indexed": false,
          "name": "numberOfTokens",
          "type": "uint256"
        }
      ],
      "name": "Sold",
      "type": "event"
    },
    {
      "anonymous": false,
      "inputs": [
        {
          "indexed": true,
          "name": "from",
          "type": "address"
        },
        {
          "indexed": false,
          "name": "numberOfTokens",
          "type": "uint256"
        }
      ],
      "name": "Refunded",
      "type": "event"
    },
    {
      "anonymous": false,
      "inputs": [
        {
          "indexed": true,
          "name": "from",
          "type": "address"
        },
        {
          "indexed": false,
          "name": "numberOfTokens",
          "type": "uint256"
        }
      ],
      "name": "Redeemed",
      "type": "event"
    },
    {
      "anonymous": false,
      "inputs": [
        {
          "indexed": true,
          "name": "from",
          "type": "address"
        },
        {
          "indexed": false,
          "name": "numberOfTokens",
          "type": "uint256"
        }
      ],
      "name": "Reallocated",
      "type": "event"
    },
    {
      "anonymous": false,
      "inputs": [
        {
          "indexed": true,
          "name": "blockNumber",
          "type": "uint256"
        }
      ],
      "name": "Activated",
      "type": "event"
    },
    {
      "anonymous": false,
      "inputs": [
        {
          "indexed": true,
          "name": "blockNumber",
          "type": "uint256"
        }
      ],
      "name": "Deactivated",
      "type": "event"
    },
    {
      "constant": true,
      "inputs": [],
      "name": "getOwner",
      "outputs": [
        {
          "name": "",
          "type": "address"
        }
      ],
      "payable": false,
      "stateMutability": "view",
      "type": "function"
    },
    {
      "constant": true,
      "inputs": [],
      "name": "getTokenPrice",
      "outputs": [
        {
          "name": "",
          "type": "uint256"
        }
      ],
      "payable": false,
      "stateMutability": "view",
      "type": "function"
    },
    {
      "constant": true,
      "inputs": [],
      "name": "getTokensMinCap",
      "outputs": [
        {
          "name": "",
          "type": "uint256"
        }
      ],
      "payable": false,
      "stateMutability": "view",
      "type": "function"
    },
    {
      "constant": true,
      "inputs": [],
      "name": "getTokensMaxCap",
      "outputs": [
        {
          "name": "",
          "type": "uint256"
        }
      ],
      "payable": false,
      "stateMutability": "view",
      "type": "function"
    },
    {
      "constant": true,
      "inputs": [],
      "name": "getTokensSold",
      "outputs": [
        {
          "name": "",
          "type": "uint256"
        }
      ],
      "payable": false,
      "stateMutability": "view",
      "type": "function"
    },
    {
      "constant": true,
      "inputs": [],
      "name": "getStartTimestamp",
      "outputs": [
        {
          "name": "",
          "type": "uint256"
        }
      ],
      "payable": false,
      "stateMutability": "view",
      "type": "function"
    },
    {
      "constant": true,
      "inputs": [],
      "name": "getEndTimestamp",
      "outputs": [
        {
          "name": "",
          "type": "uint256"
        }
      ],
      "payable": false,
      "stateMutability": "view",
      "type": "function"
    },
    {
      "constant": true,
      "inputs": [],
      "name": "getRedeemableAfterTimestamp",
      "outputs": [
        {
          "name": "",
          "type": "uint256"
        }
      ],
      "payable": false,
      "stateMutability": "view",
      "type": "function"
    },
    {
      "constant": true,
      "inputs": [
        {
          "name": "buyer",
          "type": "address"
        }
      ],
      "name": "getBalanceOf",
      "outputs": [
        {
          "name": "",
          "type": "uint256"
        }
      ],
      "payable": false,
      "stateMutability": "view",
      "type": "function"
    },
    {
      "constant": false,
      "inputs": [],
      "name": "activate",
      "outputs": [
        {
          "name": "",
          "type": "bool"
        }
      ],
      "payable": false,
      "stateMutability": "nonpayable",
      "type": "function"
    },
    {
      "constant": false,
      "inputs": [],
      "name": "deactivate",
      "outputs": [
        {
          "name": "",
          "type": "bool"
        }
      ],
      "payable": false,
      "stateMutability": "nonpayable",
      "type": "function"
    },
    {
      "constant": false,
      "inputs": [
        {
          "name": "numberOfTokens",
          "type": "uint256"
        }
      ],
      "name": "buyTokens",
      "outputs": [
        {
          "name": "",
          "type": "bool"
        }
      ],
      "payable": true,
      "stateMutability": "payable",
      "type": "function"
    },
    {
      "constant": false,
      "inputs": [],
      "name": "refundTokens",
      "outputs": [
        {
          "name": "",
          "type": "bool"
        }
      ],
      "payable": false,
      "stateMutability": "nonpayable",
      "type": "function"
    },
    {
      "constant": false,
      "inputs": [],
      "name": "redeemTokens",
      "outputs": [
        {
          "name": "",
          "type": "bool"
        }
      ],
      "payable": false,
      "stateMutability": "nonpayable",
      "type": "function"
    },
    {
      "constant": false,
      "inputs": [],
      "name": "reallocateTokens",
      "outputs": [
        {
          "name": "",
          "type": "bool"
        }
      ],
      "payable": false,
      "stateMutability": "nonpayable",
      "type": "function"
    }
  ],
  "bytecode": "0x608060405234801561001057600080fd5b5060405160e0806110e7833981018060405260e081101561003057600080fd5b8101908080519060200190929190805190602001909291908051906020019092919080519060200190929190805190602001909291908051906020019092919080519060200190929190505050600073ffffffffffffffffffffffffffffffffffffffff168773ffffffffffffffffffffffffffffffffffffffff1614156100b757600080fd5b6000861180156100c75750600085115b80156100d35750600084115b6100dc57600080fd5b8484116100e857600080fd5b33600060016101000a81548173ffffffffffffffffffffffffffffffffffffffff021916908373ffffffffffffffffffffffffffffffffffffffff16021790555086600160006101000a81548173ffffffffffffffffffffffffffffffffffffffff021916908373ffffffffffffffffffffffffffffffffffffffff160217905550856002819055508460038190555083600481905550826006819055508160078190555080600881905550600060058190555060008060006101000a81548160ff021916908360018111156101ba57fe5b021790555050505050505050610f12806101d56000396000f3fe608060405260043610610110576000357c01000000000000000000000000000000000000000000000000000000009004806351b42b00116100a75780639b96eece116100765780639b96eece1461037a578063b35e59c8146103df578063e9a9c50c1461040e578063ee7c0db01461043d57610110565b806351b42b001461029a57806371007509146102c957806374e94deb146102f8578063893d20e81461032357610110565b8063486ddec3116100e3578063486ddec3146101e05780634b94f50e1461020b5780634e69d56014610236578063513de7a81461026f57610110565b80630f15f4c0146101155780631f89f25e1461014457806323c445831461016f5780633610724e1461019a575b600080fd5b34801561012157600080fd5b5061012a610468565b604051808215151515815260200191505060405180910390f35b34801561015057600080fd5b5061015961051a565b6040518082815260200191505060405180910390f35b34801561017b57600080fd5b50610184610524565b6040518082815260200191505060405180910390f35b6101c6600480360360208110156101b057600080fd5b810190808035906020019092919050505061052e565b604051808215151515815260200191505060405180910390f35b3480156101ec57600080fd5b506101f5610654565b6040518082815260200191505060405180910390f35b34801561021757600080fd5b5061022061065e565b6040518082815260200191505060405180910390f35b34801561024257600080fd5b5061024b610668565b6040518082600181111561025b57fe5b60ff16815260200191505060405180910390f35b34801561027b57600080fd5b5061028461067e565b6040518082815260200191505060405180910390f35b3480156102a657600080fd5b506102af610688565b604051808215151515815260200191505060405180910390f35b3480156102d557600080fd5b506102de61073a565b604051808215151515815260200191505060405180910390f35b34801561030457600080fd5b5061030d610900565b6040518082815260200191505060405180910390f35b34801561032f57600080fd5b5061033861090a565b604051808273ffffffffffffffffffffffffffffffffffffffff1673ffffffffffffffffffffffffffffffffffffffff16815260200191505060405180910390f35b34801561038657600080fd5b506103c96004803603602081101561039d57600080fd5b81019080803573ffffffffffffffffffffffffffffffffffffffff169060200190929190505050610933565b6040518082815260200191505060405180910390f35b3480156103eb57600080fd5b506103f461097c565b604051808215151515815260200191505060405180910390f35b34801561041a57600080fd5b50610423610c49565b604051808215151515815260200191505060405180910390f35b34801561044957600080fd5b50610452610edc565b6040518082815260200191505060405180910390f35b60008060019054906101000a900473ffffffffffffffffffffffffffffffffffffffff1673ffffffffffffffffffffffffffffffffffffffff163373ffffffffffffffffffffffffffffffffffffffff16146104c357600080fd5b60008060006101000a81548160ff021916908360018111156104e157fe5b0217905550437f3ec796be1be7d03bff3a62b9fa594a60e947c1809bced06d929f145308ae57ce60405160405180910390a26001905090565b6000600654905090565b6000600854905090565b600080600181111561053c57fe5b6000809054906101000a900460ff16600181111561055657fe5b1461056057600080fd5b600654421015801561057457506007544211155b61057d57600080fd5b8160055460045403101561059057600080fd5b600254820234146105a057600080fd5b8160056000828254019250508190555081600960003373ffffffffffffffffffffffffffffffffffffffff1673ffffffffffffffffffffffffffffffffffffffff168152602001908152602001600020600082825401925050819055503373ffffffffffffffffffffffffffffffffffffffff167fae92ab4b6f8f401ead768d3273e6bb937a13e39827d19c6376e8fd4512a05d9a836040518082815260200191505060405180910390a260019050919050565b6000600454905090565b6000600254905090565b60008060009054906101000a900460ff16905090565b6000600354905090565b60008060019054906101000a900473ffffffffffffffffffffffffffffffffffffffff1673ffffffffffffffffffffffffffffffffffffffff163373ffffffffffffffffffffffffffffffffffffffff16146106e357600080fd5b60016000806101000a81548160ff0219169083600181111561070157fe5b0217905550437fed48e4e899b34abded07dd8f092a22585a3fdec7db6b83f3927af165bf04cb1e60405160405180910390a26001905090565b600080600181111561074857fe5b6000809054906101000a900460ff16600181111561076257fe5b1461076c57600080fd5b600754421161077a57600080fd5b6003546005541061078a57600080fd5b6000600960003373ffffffffffffffffffffffffffffffffffffffff1673ffffffffffffffffffffffffffffffffffffffff16815260200190815260200160002054116107d657600080fd5b6000600960003373ffffffffffffffffffffffffffffffffffffffff1673ffffffffffffffffffffffffffffffffffffffff1681526020019081526020016000205490506000600960003373ffffffffffffffffffffffffffffffffffffffff1673ffffffffffffffffffffffffffffffffffffffff168152602001908152602001600020819055503373ffffffffffffffffffffffffffffffffffffffff166108fc60025483029081150290604051600060405180830381858888f193505050501580156108a9573d6000803e3d6000fd5b503373ffffffffffffffffffffffffffffffffffffffff167fd7dee2702d63ad89917b6a4da9981c90c4d24f8c2bdfd64c604ecae57d8d0651826040518082815260200191505060405180910390a2600191505090565b6000600754905090565b60008060019054906101000a900473ffffffffffffffffffffffffffffffffffffffff16905090565b6000600960008373ffffffffffffffffffffffffffffffffffffffff1673ffffffffffffffffffffffffffffffffffffffff168152602001908152602001600020549050919050565b600080600181111561098a57fe5b6000809054906101000a900460ff1660018111156109a457fe5b146109ae57600080fd5b60075442116109bc57600080fd5b600060019054906101000a900473ffffffffffffffffffffffffffffffffffffffff1673ffffffffffffffffffffffffffffffffffffffff163373ffffffffffffffffffffffffffffffffffffffff1614610a1657600080fd5b600060035460055410610aa057600554600454039050600060019054906101000a900473ffffffffffffffffffffffffffffffffffffffff1673ffffffffffffffffffffffffffffffffffffffff166108fc600254600554029081150290604051600060405180830381858888f19350505050158015610a9a573d6000803e3d6000fd5b50610aa6565b60045490505b600160009054906101000a900473ffffffffffffffffffffffffffffffffffffffff1673ffffffffffffffffffffffffffffffffffffffff1663a9059cbb600060019054906101000a900473ffffffffffffffffffffffffffffffffffffffff16836040518363ffffffff167c0100000000000000000000000000000000000000000000000000000000028152600401808373ffffffffffffffffffffffffffffffffffffffff1673ffffffffffffffffffffffffffffffffffffffff16815260200182815260200192505050602060405180830381600087803b158015610b8d57600080fd5b505af1158015610ba1573d6000803e3d6000fd5b505050506040513d6020811015610bb757600080fd5b8101908080519060200190929190505050610bd157600080fd5b600060019054906101000a900473ffffffffffffffffffffffffffffffffffffffff1673ffffffffffffffffffffffffffffffffffffffff167fee9316440d6e2f8b6f1392efbb896bf3feb2161a7b417a2c0e28ab6f43dbbc09826040518082815260200191505060405180910390a2600191505090565b6000806001811115610c5757fe5b6000809054906101000a900460ff166001811115610c7157fe5b14610c7b57600080fd5b6007544211610c8957600080fd5b6008544211610c9757600080fd5b6003546005541015610ca857600080fd5b6000600960003373ffffffffffffffffffffffffffffffffffffffff1673ffffffffffffffffffffffffffffffffffffffff1681526020019081526020016000205411610cf457600080fd5b6000600960003373ffffffffffffffffffffffffffffffffffffffff1673ffffffffffffffffffffffffffffffffffffffff1681526020019081526020016000205490506000600960003373ffffffffffffffffffffffffffffffffffffffff1673ffffffffffffffffffffffffffffffffffffffff16815260200190815260200160002081905550600160009054906101000a900473ffffffffffffffffffffffffffffffffffffffff1673ffffffffffffffffffffffffffffffffffffffff1663a9059cbb33836040518363ffffffff167c0100000000000000000000000000000000000000000000000000000000028152600401808373ffffffffffffffffffffffffffffffffffffffff1673ffffffffffffffffffffffffffffffffffffffff16815260200182815260200192505050602060405180830381600087803b158015610e4257600080fd5b505af1158015610e56573d6000803e3d6000fd5b505050506040513d6020811015610e6c57600080fd5b8101908080519060200190929190505050610e8657600080fd5b3373ffffffffffffffffffffffffffffffffffffffff167f4896181ff8f4543cc00db9fe9b6fb7e6f032b7eb772c72ab1ec1b4d2e03b9369826040518082815260200191505060405180910390a2600191505090565b600060055490509056fea165627a7a72305820959c4949fc29ed8eff32e46607cdbeb00ba37c5d9ac5424f971a55786f76f0a80029",
  "source": "pragma solidity ^0.5.7;\r\n\r\n/// Contracts.\r\nimport \"./OpenHouseToken.sol\";\r\nimport \"./Status.sol\";\r\n\r\n/// Libraries.\r\nimport \"../libraries/SafeMath.sol\";\r\n\r\ncontract Sale is Status {\r\n    using SafeMath for uint256;\r\n\r\n    address payable internal owner;\r\n    OpenHouseToken internal tokenInstance;\r\n    uint256 internal tokenPrice;\r\n    uint256 internal tokensMinCap;\r\n    uint256 internal tokensMaxCap;\r\n    uint256 internal tokensSold;\r\n\r\n    uint256 internal startTimestamp;\r\n    uint256 internal endTimestamp;\r\n    uint256 internal redeemableAfterTimestamp;\r\n\r\n    mapping(address => uint256) internal balanceOf;\r\n\r\n    /// Modifiers.\r\n\r\n    /// Verifies that sender is the owner of the contract.\r\n    modifier onlyOwner() {\r\n        require(msg.sender == owner);\r\n        _;\r\n    }\r\n\r\n    /// Verifies that the sale is in progress.\r\n    modifier isLive() {\r\n        require(block.timestamp >= startTimestamp && block.timestamp <= endTimestamp);\r\n        _;\r\n    }\r\n\r\n    /// Verifies that the sale has ended.\r\n    modifier hasEnded() {\r\n        require(block.timestamp > endTimestamp);\r\n        _;\r\n    }\r\n\r\n    /// Verifies that tokens are redeemable.\r\n    modifier areRedeemable() {\r\n        require(block.timestamp > redeemableAfterTimestamp);\r\n        _;\r\n    }\r\n\r\n    /// Events.\r\n    event Sold(\r\n        address indexed from,\r\n        uint256 numberOfTokens\r\n    );\r\n\r\n    event Refunded(\r\n        address indexed from,\r\n        uint256 numberOfTokens\r\n    );\r\n\r\n    event Redeemed(\r\n        address indexed from,\r\n        uint256 numberOfTokens\r\n    );\r\n\r\n    event Reallocated(\r\n        address indexed from,\r\n        uint256 numberOfTokens\r\n    );\r\n\r\n    constructor(\r\n        address token, \r\n        uint256 price,\r\n        uint256 minCap,\r\n        uint256 maxCap,\r\n        uint256 start,\r\n        uint256 end,\r\n        uint256 redeemableAfter) \r\n        public\r\n    {\r\n        require(token != address(0));\r\n        require(price > 0 && minCap > 0 && maxCap > 0);\r\n        require(maxCap > minCap);\r\n\r\n        owner = msg.sender;\r\n        tokenInstance = OpenHouseToken(token);\r\n        tokenPrice = price;\r\n        tokensMinCap = minCap;\r\n        tokensMaxCap = maxCap;\r\n        startTimestamp = start;\r\n        endTimestamp = end;\r\n        redeemableAfterTimestamp = redeemableAfter;\r\n        tokensSold = 0;\r\n        status = Status.Activated;\r\n    }\r\n\r\n    /**\r\n      * @notice A getter function for the owner of the private\r\n      * sale.\r\n      * @return The address of the owner of the private sale.\r\n      */\r\n    function getOwner() public view returns(address) {\r\n        return owner;\r\n    }\r\n\r\n    /**\r\n      * @notice A getter function for the price of the token.\r\n      * @return The price of the token.\r\n      */\r\n    function getTokenPrice() public view returns(uint256) {\r\n        return tokenPrice;\r\n    }\r\n\r\n    /**\r\n      * @notice A getter function for the minumum cap of the tokens.\r\n      * @return The minimum cap of the tokens.\r\n      */\r\n    function getTokensMinCap() public view returns(uint256) {\r\n        return tokensMinCap;\r\n    }\r\n\r\n    /**\r\n      * @notice A getter function for the maximum cap of the tokens.\r\n      * @return The maximum cap of the tokens.\r\n      */\r\n    function getTokensMaxCap() public view returns(uint256) {\r\n        return tokensMaxCap;\r\n    }\r\n\r\n    /**\r\n      * @notice A getter function for the number of tokens\r\n      * sold.\r\n      * @return The number of tokens sold.\r\n      */\r\n    function getTokensSold() public view returns(uint256){\r\n        return tokensSold;\r\n    }\r\n\r\n    /**\r\n      * @notice A getter function for sale's starting timestamp.\r\n      * @return The timestamp when the sale will begin.\r\n      */\r\n    function getStartTimestamp() public view returns(uint256) {\r\n        return startTimestamp;\r\n    }\r\n\r\n    /**\r\n      * @notice A getter function for sale's ending timestamp.\r\n      * @return The timestamp when the sale will end.\r\n      */\r\n    function getEndTimestamp() public view returns(uint256) {\r\n        return endTimestamp;\r\n    }\r\n\r\n    /**\r\n      * @notice A getter function for timestamp after which the\r\n      * tokens will be redeemamble.\r\n      * @return The timestamp when the tokens will be redeemable.\r\n      */\r\n    function getRedeemableAfterTimestamp() public view returns(uint256) {\r\n        return redeemableAfterTimestamp;\r\n    }\r\n\r\n    /**\r\n      * @notice A getter function for the current balance of an address.\r\n      * @return The number of tokes bought by the given address.\r\n      */\r\n    function getBalanceOf(address buyer) public view returns(uint256) {\r\n        return balanceOf[buyer];\r\n    }\r\n\r\n    /**\r\n      * @notice Activates the contract.\r\n      * @return A boolean indicating if the activation has completed\r\n      * successfully.\r\n      */\r\n    function activate() public onlyOwner() returns(bool) {\r\n        status = Status.Activated;\r\n\r\n        emit Activated(block.number);\r\n\r\n        return true;\r\n    }\r\n\r\n    /**\r\n      * @notice Deactivates the contract.\r\n      * @return A boolean indicating if the deactivation has completed\r\n      * successfully.\r\n      */\r\n    function deactivate() public onlyOwner() returns(bool){\r\n        status = Status.Deactivated;\r\n\r\n        emit Deactivated(block.number);\r\n\r\n        return true;\r\n    }\r\n\r\n    /**\r\n      * @notice Enables sender to buy tokens.\r\n      * @param numberOfTokens The number of tokens the sender wants to buy.\r\n      * @return A boolean value indicating if the purchase has completed successfully.\r\n      */\r\n    function buyTokens(uint256 numberOfTokens) public payable isActivated() isLive() returns(bool) {\r\n        require(tokensMaxCap - tokensSold >= numberOfTokens);\r\n        require(msg.value == numberOfTokens * tokenPrice);\r\n\r\n        tokensSold += numberOfTokens;\r\n        balanceOf[msg.sender] += numberOfTokens;\r\n\r\n        emit Sold(msg.sender, numberOfTokens);\r\n\r\n        return true;\r\n    }\r\n\r\n    /**\r\n      * @notice Refunds sender's tokens when sale has failed.\r\n      * @return A boolean value indicating if the refund has completed successfully.\r\n      */\r\n    function refundTokens() public isActivated() hasEnded() returns(bool) {\r\n        require(tokensSold < tokensMinCap);\r\n        require(balanceOf[msg.sender] > 0);\r\n\r\n        uint256 balance = balanceOf[msg.sender];\r\n\r\n        balanceOf[msg.sender] = 0;\r\n\r\n        msg.sender.transfer(balance * tokenPrice);\r\n\r\n        emit Refunded(msg.sender, balance);\r\n\r\n        return true;\r\n    }\r\n\r\n    /**\r\n      * @notice Redeems sender's token when sale has completed.\r\n      * @return A boolean value indicating if the retrieval of\r\n      * the tokens has completed successfully.\r\n      */\r\n    function redeemTokens() public isActivated() hasEnded() areRedeemable() returns(bool) {\r\n        require(tokensSold >= tokensMinCap);\r\n        require(balanceOf[msg.sender] > 0);\r\n\r\n        uint256 balance = balanceOf[msg.sender];\r\n\r\n        balanceOf[msg.sender] = 0;\r\n\r\n        require(tokenInstance.transfer(msg.sender, balance));\r\n\r\n        emit Redeemed(msg.sender, balance);\r\n\r\n        return true;\r\n    }\r\n\r\n    /**\r\n      * @notice Reallocates the remaining tokens and the raised\r\n      * ether (if the sale has completed successfully) back to admin.\r\n      * @return A boolean indicating if the reallocation has completed successfully.\r\n      */\r\n    function reallocateTokens() public isActivated() hasEnded() onlyOwner() returns(bool) {\r\n        uint256 numberOfTokens;\r\n\r\n        if (tokensSold >= tokensMinCap) {\r\n            numberOfTokens = tokensMaxCap - tokensSold;\r\n            owner.transfer(tokensSold * tokenPrice);\r\n        } else {\r\n            numberOfTokens = tokensMaxCap;\r\n        }\r\n\r\n        require(tokenInstance.transfer(owner, numberOfTokens));\r\n\r\n        emit Reallocated(owner, numberOfTokens);\r\n\r\n        return true;\r\n    }\r\n\r\n}",
  "sourcePath": "/home/gkamtzir/thesis/Ethereum-ICO-Diploma-Thesis/contracts/Sale.sol",
  "compiler": {
    "name": "solc",
    "version": "0.5.7+commit.6da8b019.Emscripten.clang"
  },
  "schemaVersion": "3.0.2",
  "updatedAt": "2019-05-05T13:36:18.635Z",
  "devdoc": {
    "methods": {
      "activate()": {
        "return": "A boolean indicating if the activation has completed\r successfully.\r"
      },
      "buyTokens(uint256)": {
        "params": {
          "numberOfTokens": "The number of tokens the sender wants to buy.\r"
        },
        "return": "A boolean value indicating if the purchase has completed successfully.\r"
      },
      "deactivate()": {
        "return": "A boolean indicating if the deactivation has completed\r successfully.\r"
      },
      "getBalanceOf(address)": {
        "return": "The number of tokes bought by the given address.\r"
      },
      "getEndTimestamp()": {
        "return": "The timestamp when the sale will end.\r"
      },
      "getOwner()": {
        "return": "The address of the owner of the private sale.\r"
      },
      "getRedeemableAfterTimestamp()": {
        "return": "The timestamp when the tokens will be redeemable.\r"
      },
      "getStartTimestamp()": {
        "return": "The timestamp when the sale will begin.\r"
      },
      "getStatus()": {
        "return": "The current status of the contract.\r"
      },
      "getTokenPrice()": {
        "return": "The price of the token.\r"
      },
      "getTokensMaxCap()": {
        "return": "The maximum cap of the tokens.\r"
      },
      "getTokensMinCap()": {
        "return": "The minimum cap of the tokens.\r"
      },
      "getTokensSold()": {
        "return": "The number of tokens sold.\r"
      },
      "reallocateTokens()": {
        "return": "A boolean indicating if the reallocation has completed successfully.\r"
      },
      "redeemTokens()": {
        "return": "A boolean value indicating if the retrieval of\r the tokens has completed successfully.\r"
      },
      "refundTokens()": {
        "return": "A boolean value indicating if the refund has completed successfully.\r"
      }
    }
  },
  "userdoc": {
    "methods": {
      "activate()": {
        "notice": "Activates the contract.\r"
      },
      "buyTokens(uint256)": {
        "notice": "Enables sender to buy tokens.\r"
      },
      "deactivate()": {
        "notice": "Deactivates the contract.\r"
      },
      "getBalanceOf(address)": {
        "notice": "A getter function for the current balance of an address.\r"
      },
      "getEndTimestamp()": {
        "notice": "A getter function for sale's ending timestamp.\r"
      },
      "getOwner()": {
        "notice": "A getter function for the owner of the private\r sale.\r"
      },
      "getRedeemableAfterTimestamp()": {
        "notice": "A getter function for timestamp after which the\r tokens will be redeemamble.\r"
      },
      "getStartTimestamp()": {
        "notice": "A getter function for sale's starting timestamp.\r"
      },
      "getStatus()": {
        "notice": "A getter function for contract's status.\r"
      },
      "getTokenPrice()": {
        "notice": "A getter function for the price of the token.\r"
      },
      "getTokensMaxCap()": {
        "notice": "A getter function for the maximum cap of the tokens.\r"
      },
      "getTokensMinCap()": {
        "notice": "A getter function for the minumum cap of the tokens.\r"
      },
      "getTokensSold()": {
        "notice": "A getter function for the number of tokens\r sold.\r"
      },
      "reallocateTokens()": {
        "notice": "Reallocates the remaining tokens and the raised\r ether (if the sale has completed successfully) back to admin.\r"
      },
      "redeemTokens()": {
        "notice": "Redeems sender's token when sale has completed.\r"
      },
      "refundTokens()": {
        "notice": "Refunds sender's tokens when sale has failed.\r"
      }
    }
  }
}